{"contracts/FlowFusionBridge.sol":{"FlowFusionBridge":{"abi":[{"inputs":[{"internalType":"address","name":"_feeCollector","type":"address"},{"internalType":"uint256","name":"_protocolFeeRate","type":"uint256"}],"stateMutability":"nonpayable","type":"constructor"},{"inputs":[],"name":"EnforcedPause","type":"error"},{"inputs":[],"name":"ExpectedPause","type":"error"},{"inputs":[{"internalType":"address","name":"owner","type":"address"}],"name":"OwnableInvalidOwner","type":"error"},{"inputs":[{"internalType":"address","name":"account","type":"address"}],"name":"OwnableUnauthorizedAccount","type":"error"},{"inputs":[],"name":"ReentrancyGuardReentrantCall","type":"error"},{"inputs":[{"internalType":"address","name":"token","type":"address"}],"name":"SafeERC20FailedOperation","type":"error"},{"anonymous":false,"inputs":[{"indexed":true,"internalType":"bytes32","name":"orderId","type":"bytes32"},{"indexed":false,"internalType":"bytes32","name":"secret","type":"bytes32"},{"indexed":false,"internalType":"address","name":"claimer","type":"address"},{"indexed":false,"internalType":"uint256","name":"claimedAt","type":"uint256"}],"name":"HTLCClaimed","type":"event"},{"anonymous":false,"inputs":[{"indexed":true,"internalType":"bytes32","name":"orderId","type":"bytes32"},{"indexed":false,"internalType":"bytes32","name":"secret","type":"bytes32"},{"indexed":false,"internalType":"address","name":"claimer","type":"address"}],"name":"HTLCClaimed","type":"event"},{"anonymous":false,"inputs":[{"indexed":true,"internalType":"bytes32","name":"orderId","type":"bytes32"},{"indexed":true,"internalType":"bytes32","name":"htlcHash","type":"bytes32"},{"indexed":false,"internalType":"uint256","name":"amount","type":"uint256"},{"indexed":false,"internalType":"uint256","name":"timeoutHeight","type":"uint256"}],"name":"HTLCCreated","type":"event"},{"anonymous":false,"inputs":[{"indexed":true,"internalType":"bytes32","name":"orderId","type":"bytes32"},{"indexed":true,"internalType":"address","name":"user","type":"address"},{"indexed":false,"internalType":"uint256","name":"refundAmount","type":"uint256"},{"indexed":false,"internalType":"uint256","name":"cancelledAt","type":"uint256"}],"name":"OrderCancelled","type":"event"},{"anonymous":false,"inputs":[{"indexed":true,"internalType":"bytes32","name":"orderId","type":"bytes32"},{"indexed":true,"internalType":"address","name":"user","type":"address"},{"indexed":false,"internalType":"uint256","name":"refundAmount","type":"uint256"}],"name":"OrderCancelled","type":"event"},{"anonymous":false,"inputs":[{"indexed":true,"internalType":"bytes32","name":"orderId","type":"bytes32"},{"indexed":false,"internalType":"uint256","name":"totalExecuted","type":"uint256"},{"indexed":false,"internalType":"uint256","name":"averagePrice","type":"uint256"},{"indexed":false,"internalType":"uint256","name":"completionTime","type":"uint256"}],"name":"OrderCompleted","type":"event"},{"anonymous":false,"inputs":[{"indexed":true,"internalType":"bytes32","name":"orderId","type":"bytes32"},{"indexed":false,"internalType":"uint256","name":"totalExecuted","type":"uint256"},{"indexed":false,"internalType":"uint256","name":"averagePrice","type":"uint256"}],"name":"OrderCompleted","type":"event"},{"anonymous":false,"inputs":[{"indexed":true,"internalType":"bytes32","name":"orderId","type":"bytes32"},{"indexed":true,"internalType":"address","name":"user","type":"address"},{"indexed":false,"internalType":"string","name":"targetChain","type":"string"},{"indexed":false,"internalType":"address","name":"sourceToken","type":"address"},{"indexed":false,"internalType":"uint256","name":"sourceAmount","type":"uint256"},{"indexed":false,"internalType":"string","name":"targetToken","type":"string"},{"components":[{"internalType":"uint256","name":"windowMinutes","type":"uint256"},{"internalType":"uint256","name":"executionIntervals","type":"uint256"},{"internalType":"uint256","name":"maxSlippage","type":"uint256"},{"internalType":"uint256","name":"minFillSize","type":"uint256"},{"internalType":"bool","name":"enableMEVProtection","type":"bool"}],"indexed":false,"internalType":"struct IFlowFusionBridge.TWAPConfig","name":"twapConfig","type":"tuple"}],"name":"OrderCreated","type":"event"},{"anonymous":false,"inputs":[{"indexed":true,"internalType":"address","name":"previousOwner","type":"address"},{"indexed":true,"internalType":"address","name":"newOwner","type":"address"}],"name":"OwnershipTransferred","type":"event"},{"anonymous":false,"inputs":[{"indexed":false,"internalType":"address","name":"account","type":"address"}],"name":"Paused","type":"event"},{"anonymous":false,"inputs":[{"indexed":true,"internalType":"bytes32","name":"orderId","type":"bytes32"},{"indexed":false,"internalType":"uint256","name":"feeAmount","type":"uint256"},{"indexed":false,"internalType":"address","name":"feeCollector","type":"address"}],"name":"ProtocolFeeCollected","type":"event"},{"anonymous":false,"inputs":[{"indexed":true,"internalType":"bytes32","name":"orderId","type":"bytes32"},{"indexed":false,"internalType":"uint256","name":"intervalNumber","type":"uint256"},{"indexed":false,"internalType":"uint256","name":"executedAmount","type":"uint256"},{"indexed":false,"internalType":"uint256","name":"averagePrice","type":"uint256"},{"indexed":false,"internalType":"uint256","name":"timestamp","type":"uint256"},{"indexed":false,"internalType":"address","name":"executor","type":"address"}],"name":"TWAPExecution","type":"event"},{"anonymous":false,"inputs":[{"indexed":true,"internalType":"bytes32","name":"orderId","type":"bytes32"},{"indexed":false,"internalType":"uint256","name":"intervalNumber","type":"uint256"},{"indexed":false,"internalType":"uint256","name":"executedAmount","type":"uint256"},{"indexed":false,"internalType":"uint256","name":"averagePrice","type":"uint256"},{"indexed":false,"internalType":"uint256","name":"timestamp","type":"uint256"}],"name":"TWAPExecution","type":"event"},{"anonymous":false,"inputs":[{"indexed":false,"internalType":"address","name":"account","type":"address"}],"name":"Unpaused","type":"event"},{"stateMutability":"payable","type":"fallback"},{"inputs":[],"name":"BASIS_POINTS","outputs":[{"internalType":"uint256","name":"","type":"uint256"}],"stateMutability":"view","type":"function"},{"inputs":[],"name":"MAX_EXECUTION_INTERVALS","outputs":[{"internalType":"uint256","name":"","type":"uint256"}],"stateMutability":"view","type":"function"},{"inputs":[],"name":"MAX_SLIPPAGE","outputs":[{"internalType":"uint256","name":"","type":"uint256"}],"stateMutability":"view","type":"function"},{"inputs":[],"name":"MAX_WINDOW_MINUTES","outputs":[{"internalType":"uint256","name":"","type":"uint256"}],"stateMutability":"view","type":"function"},{"inputs":[],"name":"MIN_EXECUTION_AMOUNT","outputs":[{"internalType":"uint256","name":"","type":"uint256"}],"stateMutability":"view","type":"function"},{"inputs":[],"name":"MIN_WINDOW_MINUTES","outputs":[{"internalType":"uint256","name":"","type":"uint256"}],"stateMutability":"view","type":"function"},{"inputs":[],"name":"VERSION","outputs":[{"internalType":"uint256","name":"","type":"uint256"}],"stateMutability":"view","type":"function"},{"inputs":[{"internalType":"address","name":"executor","type":"address"}],"name":"addAuthorizedExecutor","outputs":[],"stateMutability":"nonpayable","type":"function"},{"inputs":[{"internalType":"string","name":"chainId","type":"string"}],"name":"addSupportedChain","outputs":[],"stateMutability":"nonpayable","type":"function"},{"inputs":[{"internalType":"address","name":"","type":"address"}],"name":"authorizedExecutors","outputs":[{"internalType":"bool","name":"","type":"bool"}],"stateMutability":"view","type":"function"},{"inputs":[{"internalType":"bytes32","name":"orderId","type":"bytes32"}],"name":"cancelOrder","outputs":[],"stateMutability":"nonpayable","type":"function"},{"inputs":[{"internalType":"bytes32","name":"orderId","type":"bytes32"},{"internalType":"bytes32","name":"secret","type":"bytes32"}],"name":"claimHTLC","outputs":[],"stateMutability":"nonpayable","type":"function"},{"inputs":[{"internalType":"address","name":"sourceToken","type":"address"},{"internalType":"uint256","name":"sourceAmount","type":"uint256"},{"internalType":"string","name":"targetChain","type":"string"},{"internalType":"string","name":"targetToken","type":"string"},{"internalType":"string","name":"targetRecipient","type":"string"},{"components":[{"internalType":"uint256","name":"windowMinutes","type":"uint256"},{"internalType":"uint256","name":"executionIntervals","type":"uint256"},{"internalType":"uint256","name":"maxSlippage","type":"uint256"},{"internalType":"uint256","name":"minFillSize","type":"uint256"},{"internalType":"bool","name":"enableMEVProtection","type":"bool"}],"internalType":"struct IFlowFusionBridge.TWAPConfig","name":"twapConfig","type":"tuple"},{"internalType":"bytes32","name":"htlcHash","type":"bytes32"},{"internalType":"uint256","name":"timeoutHeight","type":"uint256"}],"name":"createTWAPOrder","outputs":[{"internalType":"bytes32","name":"orderId","type":"bytes32"}],"stateMutability":"payable","type":"function"},{"inputs":[{"internalType":"address","name":"token","type":"address"},{"internalType":"uint256","name":"amount","type":"uint256"}],"name":"emergencyWithdraw","outputs":[],"stateMutability":"nonpayable","type":"function"},{"inputs":[{"internalType":"bytes32","name":"orderId","type":"bytes32"},{"internalType":"uint256","name":"intervalAmount","type":"uint256"},{"internalType":"uint256","name":"executionPrice","type":"uint256"},{"internalType":"bytes","name":"priceProof","type":"bytes"}],"name":"executeTWAPInterval","outputs":[],"stateMutability":"nonpayable","type":"function"},{"inputs":[{"internalType":"bytes32","name":"","type":"bytes32"},{"internalType":"uint256","name":"","type":"uint256"}],"name":"executionHistory","outputs":[{"internalType":"uint256","name":"timestamp","type":"uint256"},{"internalType":"uint256","name":"amount","type":"uint256"},{"internalType":"uint256","name":"price","type":"uint256"},{"internalType":"uint256","name":"gasUsed","type":"uint256"},{"internalType":"uint256","name":"slippage","type":"uint256"}],"stateMutability":"view","type":"function"},{"inputs":[],"name":"feeCollector","outputs":[{"internalType":"address","name":"","type":"address"}],"stateMutability":"view","type":"function"},{"inputs":[{"internalType":"bytes32","name":"orderId","type":"bytes32"}],"name":"getCurrentTWAPPrice","outputs":[{"internalType":"uint256","name":"","type":"uint256"}],"stateMutability":"view","type":"function"},{"inputs":[{"internalType":"bytes32","name":"orderId","type":"bytes32"}],"name":"getExecutionHistory","outputs":[{"components":[{"internalType":"uint256","name":"timestamp","type":"uint256"},{"internalType":"uint256","name":"amount","type":"uint256"},{"internalType":"uint256","name":"price","type":"uint256"},{"internalType":"uint256","name":"gasUsed","type":"uint256"},{"internalType":"uint256","name":"slippage","type":"uint256"}],"internalType":"struct IFlowFusionBridge.ExecutionRecord[]","name":"","type":"tuple[]"}],"stateMutability":"view","type":"function"},{"inputs":[{"internalType":"bytes32","name":"orderId","type":"bytes32"}],"name":"getNextExecutionTime","outputs":[{"internalType":"uint256","name":"","type":"uint256"}],"stateMutability":"view","type":"function"},{"inputs":[{"internalType":"bytes32","name":"orderId","type":"bytes32"}],"name":"getOrder","outputs":[{"components":[{"internalType":"bytes32","name":"id","type":"bytes32"},{"internalType":"address","name":"user","type":"address"},{"internalType":"address","name":"sourceToken","type":"address"},{"internalType":"uint256","name":"sourceAmount","type":"uint256"},{"internalType":"string","name":"targetChain","type":"string"},{"internalType":"string","name":"targetToken","type":"string"},{"internalType":"string","name":"targetRecipient","type":"string"},{"components":[{"internalType":"uint256","name":"windowMinutes","type":"uint256"},{"internalType":"uint256","name":"executionIntervals","type":"uint256"},{"internalType":"uint256","name":"maxSlippage","type":"uint256"},{"internalType":"uint256","name":"minFillSize","type":"uint256"},{"internalType":"bool","name":"enableMEVProtection","type":"bool"}],"internalType":"struct IFlowFusionBridge.TWAPConfig","name":"twapConfig","type":"tuple"},{"internalType":"bytes32","name":"htlcHash","type":"bytes32"},{"internalType":"uint256","name":"timeoutHeight","type":"uint256"},{"internalType":"uint256","name":"createdAt","type":"uint256"},{"internalType":"uint256","name":"executedAmount","type":"uint256"},{"internalType":"uint256","name":"lastExecution","type":"uint256"},{"internalType":"enum IFlowFusionBridge.OrderStatus","name":"status","type":"uint8"},{"internalType":"uint256","name":"averagePrice","type":"uint256"}],"internalType":"struct IFlowFusionBridge.TWAPOrder","name":"","type":"tuple"}],"stateMutability":"view","type":"function"},{"inputs":[{"internalType":"enum IFlowFusionBridge.OrderStatus","name":"status","type":"uint8"}],"name":"getOrdersByStatus","outputs":[{"internalType":"bytes32[]","name":"","type":"bytes32[]"}],"stateMutability":"view","type":"function"},{"inputs":[{"internalType":"address","name":"user","type":"address"}],"name":"getUserOrders","outputs":[{"internalType":"bytes32[]","name":"","type":"bytes32[]"}],"stateMutability":"view","type":"function"},{"inputs":[],"name":"maxOrdersPerUser","outputs":[{"internalType":"uint256","name":"","type":"uint256"}],"stateMutability":"view","type":"function"},{"inputs":[],"name":"orderNonce","outputs":[{"internalType":"uint256","name":"","type":"uint256"}],"stateMutability":"view","type":"function"},{"inputs":[{"internalType":"bytes32","name":"","type":"bytes32"}],"name":"orders","outputs":[{"internalType":"bytes32","name":"id","type":"bytes32"},{"internalType":"address","name":"user","type":"address"},{"internalType":"address","name":"sourceToken","type":"address"},{"internalType":"uint256","name":"sourceAmount","type":"uint256"},{"internalType":"string","name":"targetChain","type":"string"},{"internalType":"string","name":"targetToken","type":"string"},{"internalType":"string","name":"targetRecipient","type":"string"},{"components":[{"internalType":"uint256","name":"windowMinutes","type":"uint256"},{"internalType":"uint256","name":"executionIntervals","type":"uint256"},{"internalType":"uint256","name":"maxSlippage","type":"uint256"},{"internalType":"uint256","name":"minFillSize","type":"uint256"},{"internalType":"bool","name":"enableMEVProtection","type":"bool"}],"internalType":"struct IFlowFusionBridge.TWAPConfig","name":"twapConfig","type":"tuple"},{"internalType":"bytes32","name":"htlcHash","type":"bytes32"},{"internalType":"uint256","name":"timeoutHeight","type":"uint256"},{"internalType":"uint256","name":"createdAt","type":"uint256"},{"internalType":"uint256","name":"executedAmount","type":"uint256"},{"internalType":"uint256","name":"lastExecution","type":"uint256"},{"internalType":"enum IFlowFusionBridge.OrderStatus","name":"status","type":"uint8"},{"internalType":"uint256","name":"averagePrice","type":"uint256"}],"stateMutability":"view","type":"function"},{"inputs":[],"name":"owner","outputs":[{"internalType":"address","name":"","type":"address"}],"stateMutability":"view","type":"function"},{"inputs":[],"name":"pause","outputs":[],"stateMutability":"nonpayable","type":"function"},{"inputs":[],"name":"paused","outputs":[{"internalType":"bool","name":"","type":"bool"}],"stateMutability":"view","type":"function"},{"inputs":[],"name":"protocolFeeRate","outputs":[{"internalType":"uint256","name":"","type":"uint256"}],"stateMutability":"view","type":"function"},{"inputs":[{"internalType":"address","name":"executor","type":"address"}],"name":"removeAuthorizedExecutor","outputs":[],"stateMutability":"nonpayable","type":"function"},{"inputs":[{"internalType":"string","name":"chainId","type":"string"}],"name":"removeSupportedChain","outputs":[],"stateMutability":"nonpayable","type":"function"},{"inputs":[],"name":"renounceOwnership","outputs":[],"stateMutability":"nonpayable","type":"function"},{"inputs":[{"internalType":"string","name":"","type":"string"}],"name":"supportedChains","outputs":[{"internalType":"bool","name":"","type":"bool"}],"stateMutability":"view","type":"function"},{"inputs":[],"name":"totalOrders","outputs":[{"internalType":"uint256","name":"","type":"uint256"}],"stateMutability":"view","type":"function"},{"inputs":[],"name":"totalVolume","outputs":[{"internalType":"uint256","name":"","type":"uint256"}],"stateMutability":"view","type":"function"},{"inputs":[{"internalType":"address","name":"newOwner","type":"address"}],"name":"transferOwnership","outputs":[],"stateMutability":"nonpayable","type":"function"},{"inputs":[],"name":"unpause","outputs":[],"stateMutability":"nonpayable","type":"function"},{"inputs":[{"internalType":"address","name":"newFeeCollector","type":"address"}],"name":"updateFeeCollector","outputs":[],"stateMutability":"nonpayable","type":"function"},{"inputs":[{"internalType":"uint256","name":"newMaxOrders","type":"uint256"}],"name":"updateMaxOrdersPerUser","outputs":[],"stateMutability":"nonpayable","type":"function"},{"inputs":[{"internalType":"uint256","name":"newFeeRate","type":"uint256"}],"name":"updateProtocolFeeRate","outputs":[],"stateMutability":"nonpayable","type":"function"},{"inputs":[{"internalType":"address","name":"","type":"address"}],"name":"userOrderCount","outputs":[{"internalType":"uint256","name":"","type":"uint256"}],"stateMutability":"view","type":"function"},{"inputs":[{"internalType":"address","name":"","type":"address"},{"internalType":"uint256","name":"","type":"uint256"}],"name":"userOrders","outputs":[{"internalType":"bytes32","name":"","type":"bytes32"}],"stateMutability":"view","type":"function"},{"stateMutability":"payable","type":"receive"}],"devdoc":{"author":"FlowFusion Team","details":"Handles order creation, TWAP execution, and cross-chain coordination","errors":{"EnforcedPause()":[{"details":"The operation failed because the contract is paused."}],"ExpectedPause()":[{"details":"The operation failed because the contract is not paused."}],"OwnableInvalidOwner(address)":[{"details":"The owner is not a valid owner account. (eg. `address(0)`)"}],"OwnableUnauthorizedAccount(address)":[{"details":"The caller account is not authorized to perform an operation."}],"ReentrancyGuardReentrantCall()":[{"details":"Unauthorized reentrant call."}],"SafeERC20FailedOperation(address)":[{"details":"An operation with an ERC-20 token failed."}]},"events":{"Paused(address)":{"details":"Emitted when the pause is triggered by `account`."},"Unpaused(address)":{"details":"Emitted when the pause is lifted by `account`."}},"kind":"dev","methods":{"cancelOrder(bytes32)":{"params":{"orderId":"Order to cancel"}},"claimHTLC(bytes32,bytes32)":{"params":{"orderId":"Order to claim","secret":"Secret to unlock HTLC"}},"createTWAPOrder(address,uint256,string,string,string,(uint256,uint256,uint256,uint256,bool),bytes32,uint256)":{"params":{"htlcHash":"Hash for HTLC mechanism","sourceAmount":"Amount of source tokens","sourceToken":"Address of source token (address(0) for ETH)","targetChain":"Target blockchain identifier","targetRecipient":"Recipient address on target chain","targetToken":"Target token identifier","timeoutHeight":"Block height timeout","twapConfig":"TWAP execution configuration"},"returns":{"orderId":"Unique order identifier"}},"executeTWAPInterval(bytes32,uint256,uint256,bytes)":{"params":{"executionPrice":"Price for this execution","intervalAmount":"Amount to execute in this interval","orderId":"Order to execute","priceProof":"Proof of price validity (for oracle verification)"}},"owner()":{"details":"Returns the address of the current owner."},"paused()":{"details":"Returns true if the contract is paused, and false otherwise."},"renounceOwnership()":{"details":"Leaves the contract without owner. It will not be possible to call `onlyOwner` functions. Can only be called by the current owner. NOTE: Renouncing ownership will leave the contract without an owner, thereby disabling any functionality that is only available to the owner."},"transferOwnership(address)":{"details":"Transfers ownership of the contract to a new account (`newOwner`). Can only be called by the current owner."}},"title":"FlowFusion Bridge","version":1},"evm":{"bytecode":{"linkReferences":{},"object":"6080346200028757620033c090601f38839003908101601f19168201906001600160401b038211838310176200028c5780839160409586948552833981010312620002875780516001600160a01b039182821691829003620002875760200151906001928360005533156200026f578354610100600160a81b0319811633600881811b610100600160a81b0316929092178755875193909290911c167f8be0079c531659141344cd1fd0a4f28419497f9722a3daafe3b4186f6b6457e0600080a36064600d55811562000223575060648211620001df5760018060a01b0319600b541617600b55600c5581519065636f736d6f7360d01b825260286026600593846006820152209260ff19938385825416179055602785516639ba32b63630b960c91b815282600782015220838582541617905560278551663134ba31b7b4b760c91b815282600782015220838582541617905581855167657468657265756d60c01b815282600882015220838582541617905560278551663837b63cb3b7b760c91b815282600782015220838582541617905581855167617262697472756d60c01b8152826008820152208385825416179055845190676f7074696d69736d60c01b8252600882015220918254161790555161311d9081620002a38239f35b835162461bcd60e51b815260206004820152601d60248201527f466c6f77467573696f6e3a20466565207261746520746f6f20686967680000006044820152606490fd5b62461bcd60e51b815260206004820152602160248201527f466c6f77467573696f6e3a20496e76616c69642066656520636f6c6c6563746f6044820152603960f91b6064820152608490fd5b8451631e4fbdf760e01b815260006004820152602490fd5b600080fd5b634e487b7160e01b600052604160045260246000fdfe60808060405260043610156100a8575b50361561005b5760405162461bcd60e51b815260206004820152601e60248201527f466c6f77467573696f6e3a2046756e6374696f6e206e6f7420666f756e6400006044820152606490fd5b341561006357005b60405162461bcd60e51b815260206004820152601760248201527f466c6f77467573696f6e3a204e6f204554482073656e740000000000000000006044820152606490fd5b60003560e01c90816316f8de8914612808575080631833f0cf146127065780631d834409146126e85780631def6ffe146126cb5780633f4ba83a146126615780634656002314612616578063518479b31461187a5780635778472a1461169f57806358f85880146116815780635c975abb1461165e5780635d830dd1146116405780635f81a57c1461162257806360c7bae2146115e05780636340d55c1461157257806363c69f08146114eb578063679d86a7146114ac5780636c30aaa21461145e578063715018a6146113fd5780637489ec231461121e5780638456cb59146111c5578063856652e91461116c5780638ce2ec791461105a5780638da5cb5b1461102d57806395ccea6714610fb05780639755dca014610e195780639c3f1e9014610cbb5780639cac0fb214610c4f578063a3f1c42014610648578063a6329c7f146105d9578063a89a6f69146105bb578063b2a7f4941461052b578063c415b95c14610502578063d2c35ce81461046b578063d62e5d791461044f578063dc33597d14610429578063e1f1c4a71461040c578063e5eb8a89146103a3578063e6a73b6314610387578063ec4eb4f91461034d578063f2fde38b146102b4578063f9759518146102af578063fca98ac6146102af5763ffa1ad741461028e573861000f565b346102aa5760003660031901126102aa57602060405160018152f35b600080fd5b612afd565b346102aa5760203660031901126102aa576102cd6128ec565b6102d5612d8f565b6001600160a01b038181169182156103345760018054610100600160a81b03198116600893841b610100600160a81b031617909155901c167f8be0079c531659141344cd1fd0a4f28419497f9722a3daafe3b4186f6b6457e0600080a3005b604051631e4fbdf760e01b815260006004820152602490fd5b346102aa5760203660031901126102aa576001600160a01b0361036e6128ec565b1660005260076020526020604060002054604051908152f35b346102aa5760003660031901126102aa57602060405160058152f35b346102aa5760203660031901126102aa576004356001600160401b0381116102aa5760206103d86103f3923690600401612896565b6103e0612d8f565b8160405193828580945193849201612902565b600590820190815203019020805460ff19166001179055005b346102aa5760003660031901126102aa5760206040516127108152f35b346102aa5760203660031901126102aa576020610447600435612d55565b604051908152f35b346102aa5760003660031901126102aa57602060405160148152f35b346102aa5760203660031901126102aa576104846128ec565b61048c612d8f565b6001600160a01b031680156104b3576001600160601b0360a01b600b541617600b55600080f35b60405162461bcd60e51b815260206004820152602160248201527f466c6f77467573696f6e3a20496e76616c69642066656520636f6c6c6563746f6044820152603960f91b6064820152608490fd5b346102aa5760003660031901126102aa57600b546040516001600160a01b039091168152602090f35b346102aa5760203660031901126102aa576105446128ec565b61054c612d8f565b6001600160a01b03168015610576576000908152600660205260409020805460ff19166001179055005b60405162461bcd60e51b815260206004820152601c60248201527f466c6f77467573696f6e3a20496e76616c6964206578656375746f72000000006044820152606490fd5b346102aa5760203660031901126102aa576020610447600435612e71565b346102aa5760403660031901126102aa576024356004356000526004602052604060002080548210156102aa5760a09161061291612ae1565b50805490600181015490600281015460046003830154920154926040519485526020850152604084015260608301526080820152f35b346102aa5760803660031901126102aa576001600160401b0360246064604481358481116102aa57366023820112156102aa5780600401359485116102aa57838536920101116102aa5733600052600660205260ff6040600020541615610c01576004356000908152600260205260409020600101546106d2906001600160a01b03161515612c6b565b600435600052600260205260ff601160406000200154166005811015610bec57610bab576106fe612dbe565b6004356000526002602052604060002093833515610b5d57600385015492600f8601549161072c8386612b71565b863511610b1c57600d870154431015610adb5761075361074e60078901612aa0565b612e4e565b6010880154908115918215610ac7575b505015610a7457833515159081610a6a575b5015610a2a57610786600435612e71565b938415159283610a0b575b600a880154873510918215926109f7575b5050156109a95750600435600052600460205260406000208054935a92156109a1576107d09084359061303c565b604051926107dd84612823565b428452863560208501528435604085015260608401526080830152600160401b84101561098c578361081491600182018155612ae1565b9190916109775760808160049251845560208101516001850155604081015160028501556060810151600385015501519101556108568335600f860154612b31565b600f850155426010850155601284019283541560001461092557813584555b6040519283523560208301523560408201524260608201523360808201527fe4096eaa9aa9b8f8e8ca77df4dff5052b5d6282c11b6653afbca6a5a7574c8da60a060043592a2600f8201549160038101548310156108d5575b6001600055005b601101600160ff198254161790555460405191825260208201524260408201527fde99ce77ac3ae0048f3c53988bc6ee856041365b692310c98f709f2e2a6cfbea606060043592a28080806108ce565b61097061093186612b8d565b61096a61096061094e6101606101c0850151940193845190612b3e565b61095a86358835612b3e565b90612b31565b9184359051612b31565b90612b51565b8455610875565b84634e487b7160e01b60005260006004526000fd5b84634e487b7160e01b60005260416004526000fd5b5060006107d0565b8462697a6560e81b6084927f466c6f77467573696f6e3a2042656c6f77206d696e696d756d2066696c6c20738660236040519562461bcd60e51b875260206004880152860152840152820152fd5b610a019250612b71565b85351487806107a2565b610a25610a1986358861303c565b60098a01541015612d09565b610791565b60405162461bcd60e51b8152602060048201526019818701527f466c6f77467573696f6e3a20496e76616c69642070726963650000000000000081850152fd5b9050151587610775565b60405162461bcd60e51b8152602060048201526028818801527f466c6f77467573696f6e3a20546f6f206561726c7920666f72206e657874206581860152673c32b1baba34b7b760c11b81840152608490fd5b610ad19250612b31565b4210158880610763565b5060405162461bcd60e51b8152602060048201526019818701527f466c6f77467573696f6e3a204f7264657220657870697265640000000000000081850152fd5b5060405162461bcd60e51b815260206004820152601d818701527f466c6f77467573696f6e3a20457863656564732072656d61696e696e6700000081850152fd5b60405162461bcd60e51b8152602060048201526023818601527f466c6f77467573696f6e3a20496e76616c696420696e74657276616c20616d6f81840152621d5b9d60ea1b81850152608490fd5b7f466c6f77467573696f6e3a204f72646572206e6f7420616374697665000000008391601c6040519362461bcd60e51b855260206004860152840152820152fd5b83634e487b7160e01b60005260216004526000fd5b608492917f466c6f77467573696f6e3a204e6f7420617574686f72697a6564206578656375623a37b960e91b9260236040519562461bcd60e51b875260206004880152860152840152820152fd5b346102aa5760203660031901126102aa57600435610c6b612d8f565b8015610c7657600d55005b60405162461bcd60e51b815260206004820152601e60248201527f466c6f77467573696f6e3a20496e76616c6964206d6178206f726465727300006044820152606490fd5b346102aa5760203660031901126102aa5760043560005260026020526040600020805490600160a01b6001900380600183015416906002830154169260038301549260048101610d0a906129fb565b92610d17600583016129fb565b93610d24600684016129fb565b94610d3160078501612aa0565b95600c850154600d86015491600e87015493600f8801549560108901549760118a015460ff1699601201549a6040519e8f9e8f916102609485948452602084015260408301526060820152608001528c01610d8b91612925565b8b810360a08d0152610d9c91612925565b8a810360c08c0152610dad91612925565b885160e08b015260208901516101008b015260408901516101208b015260608901516101408b015260809098015115156101608a01526101808901526101a08801526101c08701526101e08601526102008501526102208401610e0f9161294a565b6102408301520390f35b346102aa5760403660031901126102aa576004356024358160005260206002815260018060a01b03610e5681600160406000200154161515612c6b565b610e5e612dbe565b8360005260028252604060002060118101805460ff81166005811015610f9a57600103610f555760405185810190878252868152610e9b8161285a565b519020600c84015403610f1057606094927f600ffd9313a629c5acdcb599e269730b878ff6653f1fc57f573686e2df43fa13969492600460019360ff1916179055015416600052600781526040600020610ef58154612cb6565b90556040519182523390820152426040820152a26001600055005b60405162461bcd60e51b815260048101869052601a60248201527f466c6f77467573696f6e3a20496e76616c6964207365637265740000000000006044820152606490fd5b60405162461bcd60e51b815260048101869052601f60248201527f466c6f77467573696f6e3a204f72646572206e6f7420636f6d706c65746564006044820152606490fd5b634e487b7160e01b600052602160045260246000fd5b346102aa5760403660031901126102aa57610fc96128ec565b60243590610fd5612d8f565b6001600160a01b039081168061101957506000808093819360015460081c16828215611010575bf11561100457005b6040513d6000823e3d90fd5b506108fc610ffc565b61102b929160015460081c1690612dff565b005b346102aa5760003660031901126102aa5760015460405160089190911c6001600160a01b03168152602090f35b346102aa576020806003193601126102aa5760056004358181101590816102aa57611086600954612cc3565b93600093600092600854935b8481106110e05787876110a481612cc3565b9160005b8281106110c157604051806110bd8682612957565b0390f35b806110ce60019284612cf5565b516110d98287612cf5565b52016110a8565b604051848101908282528581526110f68161285a565b5190206000818152600286526040902060018101546001600160a01b031615159088908261114e575b505061112f575b50600101611092565b87611147916111416001949a8c612cf5565b52612b7e565b9690611126565b6011015460ff169150610f9a5784811015610f9a578314878b61111f565b346102aa5760403660031901126102aa576111856128ec565b6001600160a01b03166000908152600360205260409020805460243591908210156102aa576020916111b691612993565b90549060031b1c604051908152f35b346102aa5760003660031901126102aa576111de612d8f565b6111e6612de1565b600160ff19815416176001557f62e78cea01bee320cd4e420270b5ea74000d11b0c9f74754ebdbfc544b05a2586020604051338152a1005b346102aa576020806003193601126102aa5760043560008181526002835260409020600101546001600160a01b03929061125b9084161515612c6b565b8160005260028152826001604060002001541633036113b95761127c612dbe565b81600052600281526040600020601181019081549460ff86166005811015610f9a5761136a576112b56003830154600f84015490612b71565b9586159283156112c6576001600055005b87946002809360ff19161790550154168015600014611358575060009061134f575b600080809381933390f115611004575b3360005260078152604060002061130f8154612cb6565b905560405192835242908301527fe5511acce6fbdf775b76e2921d9f62d7f15be4fd9d14a6deb11cca46a5883f6e60403393a380808080808080806108ce565b506108fc6112e8565b6113659291503390612dff565b6112f8565b60405162461bcd60e51b815260048101859052602160248201527f466c6f77467573696f6e3a204f72646572206e6f742063616e63656c6c61626c6044820152606560f81b6064820152608490fd5b6064906040519062461bcd60e51b82526004820152601b60248201527f466c6f77467573696f6e3a204e6f74206f72646572206f776e657200000000006044820152fd5b346102aa5760003660031901126102aa57611416612d8f565b60018054610100600160a81b0319811690915560009060081c6001600160a01b03167f8be0079c531659141344cd1fd0a4f28419497f9722a3daafe3b4186f6b6457e08280a3005b346102aa5760203660031901126102aa576004356001600160401b0381116102aa5760ff61149660206103e081943690600401612896565b8101600581520301902054166040519015158152f35b346102aa5760203660031901126102aa576001600160a01b036114cd6128ec565b166000526006602052602060ff604060002054166040519015158152f35b346102aa576020806003193601126102aa576001600160a01b0361150d6128ec565b1660005260036020526040600020906040519081602084549182815201936000526020600020916000905b82821061155b576110bd8561154f81890382612875565b60405191829182612957565b835486529485019460019384019390910190611538565b346102aa5760203660031901126102aa5760043561158e612d8f565b6064811161159b57600c55005b60405162461bcd60e51b815260206004820152601d60248201527f466c6f77467573696f6e3a20466565207261746520746f6f20686967680000006044820152606490fd5b346102aa5760203660031901126102aa576115f96128ec565b611601612d8f565b6001600160a01b03166000908152600660205260409020805460ff19169055005b346102aa5760003660031901126102aa576020600a54604051908152f35b346102aa5760003660031901126102aa576020600d54604051908152f35b346102aa5760003660031901126102aa57602060ff600154166040519015158152f35b346102aa5760003660031901126102aa576020600c54604051908152f35b346102aa576020806003193601126102aa57604051906116be8261283e565b60008252600081830152600060408301526060916000838201528260808201528260a08201528260c08201526040516116f681612823565b60008152600083820152600060408201526000848201526000608082015260e082015261010090600082820152610120906000828201526101406000818301526118706101606000818501526101806000818601526101a09160008387015260006101c080970152600435600052600289526117756040600020612b8d565b946040519a8a8c9b8c528751818d015287015160018060a01b0380911660408d0152604088015116818c015286015160808b01526080860151976117fc8b6117e66117ce6102609c8d60a0850152610280840190612925565b60a08b0151601f199360c08582850301910152612925565b908d60e060c08c01519282850301910152612925565b996118398c8260e08b0151910190608080918051845260208101516020850152604081015160408501526060810151606085015201511515910152565b870151858c0152860151878b01528501516101e08a015284015161020089015283015161022088015282015161024087019061294a565b0151908301520390f35b6101803660031901126102aa5761188f6128ec565b6044356001600160401b0381116102aa576118ae903690600401612896565b906064356001600160401b0381116102aa576118ce903690600401612896565b906084356001600160401b0381116102aa576118ee903690600401612896565b9060a03660a31901126102aa576040519061190882612823565b60a435825260c435602083015260e43560408301526101043560608301526101243580151581036102aa576080830152611940612dbe565b611948612de1565b6103e8602435106125d15760ff604051602081885161196a8183858d01612902565b810160058152030190205416156125805783511561253c578251156124f75761014435156124b25760644301431161249c576064430161016435111561245757336000526007602052604060002054600d5411156124125760058251106123cd576105a0825111612388576001602083015111156123375760146020830151116122f257611a006103e860408401511115612d09565b6060820151156122a357612710611a1b600c54602435612b3e565b0493611a2985602435612b71565b93600854611a3681612b7e565b600855611a9860a860405180933360601b60208301526001600160601b03198860601b16603483015260243560488301528b611a7c815180926020606887019101612902565b8201904260688301526088820152036088810184520182612875565b805160209091012095866001600160a01b0385166121f0575060243534036121ab578061213d575b505b60405190611acf8261283e565b86825233602083015260018060a01b03841660408301528560608301528760808301528260a083015260c08201528360e08201526101443561010082015261016435610120820152426101408201526000610160820152600061018082015260006101a082015260006101c0820152856000526002602052604060002090805182556001820160018060a01b03602083015116906001600160601b0360a01b9182825416179055600283019060018060a01b03604084015116908254161790556060810151600383015560808101518051906001600160401b038211611eb7578190611bbe60048601546129c1565b601f81116120ea575b50602090601f83116001146120785760009261206d575b50508160011b916000199060031b1c19161760048301555b60a08101518051906001600160401b038211611eb7578190611c1b60058601546129c1565b601f811161201a575b50602090601f8311600114611fa857600092611f9d575b50508160011b916000199060031b1c19161760058301555b60c08101518051906001600160401b038211611eb7578190611c7860068601546129c1565b601f8111611f4a575b50602090601f8311600114611ed857600092611ecd575b50508160011b916000199060031b1c19161760068301555b60e08101518051600784015560208101516008840155604081015160098401556060810151600a8401556080600b8401910151151560ff80198354169116179055610100810151600c830155610120810151600d830155610140810151600e830155610160810151600f83015561018081015160108301556101a08101516005811015610f9a576012916101c09160ff801960118701541691161760118501550151910155336000526003602052604060002095865496600160401b881015611eb757611e3787947fdf9b2ee7e19a4bed367d9c7cbae54540a83b4e8a242569d2bab04741cbb0f44294611daf8b611e6c95600160209e018155612993565b81549060031b9089821b91600019901b19161790553360005260078b526040600020611ddb8154612b7e565b9055611de8600954612b7e565b600955611df9602435600a54612b31565b600a55611e13604051956101208752610120870190612925565b6001600160a01b03909216858c015260243560408601528482036060860152612925565b946080830190608080918051845260208101516020850152604081015160408501526060810151606085015201511515910152565b8033940390a36040519081526101643583820152817f1ba3fbe5fd9d0a7139d0258bb7b035b16adb3a67cd7b5db6bb0b545c7148314660406101443593a36001600055604051908152f35b634e487b7160e01b600052604160045260246000fd5b015190508a80611c98565b9250600685016000526020600020906000935b601f1984168510611f2f576001945083601f19811610611f16575b505050811b016006830155611cb0565b015160001960f88460031b161c191690558a8080611f06565b81810151835560209485019460019093019290910190611eeb565b909150600685016000526020600020601f840160051c810160208510611f96575b90849392915b601f830160051c82018110611f87575050611c81565b60008155859450600101611f71565b5080611f6b565b015190508a80611c3b565b9250600585016000526020600020906000935b601f1984168510611fff576001945083601f19811610611fe6575b505050811b016005830155611c53565b015160001960f88460031b161c191690558a8080611fd6565b81810151835560209485019460019093019290910190611fbb565b909150600585016000526020600020601f840160051c810160208510612066575b90849392915b601f830160051c82018110612057575050611c24565b60008155859450600101612041565b508061203b565b015190508a80611bde565b9250600485016000526020600020906000935b601f19841685106120cf576001945083601f198116106120b6575b505050811b016004830155611bf6565b015160001960f88460031b161c191690558a80806120a6565b8181015183556020948501946001909301929091019061208b565b909150600485016000526020600020601f840160051c810160208510612136575b90849392915b601f830160051c82018110612127575050611bc7565b60008155859450600101612111565b508061210b565b60008080808460018060a01b03600b54168282156121a2575bf11561100457600b54604080519283526001600160a01b03909116602083015287917fcfba6f0d638f02d61bca3cad4c8b0ee671b83be0d14085bda2d196be921be9299190a287611ac0565b506108fc612156565b60405162461bcd60e51b815260206004820152601f60248201527f466c6f77467573696f6e3a2045544820616d6f756e74206d69736d61746368006044820152606490fd5b906122346040516323b872dd60e01b602082015233602482015230604482015260243560648201526064815261222581612823565b6001600160a01b03871661308b565b80612241575b5050611ac2565b600b547fcfba6f0d638f02d61bca3cad4c8b0ee671b83be0d14085bda2d196be921be92991906122809082906001600160a01b03908116908916612dff565b600b54604080519283526001600160a01b03909116602083015290a2858861223a565b60405162461bcd60e51b815260206004820152602160248201527f466c6f77467573696f6e3a20496e76616c6964206d696e2066696c6c2073697a6044820152606560f81b6064820152608490fd5b60405162461bcd60e51b815260206004820152601e60248201527f466c6f77467573696f6e3a20546f6f206d616e7920696e74657276616c7300006044820152606490fd5b60405162461bcd60e51b815260206004820152602360248201527f466c6f77467573696f6e3a204e656564206d756c7469706c6520696e74657276604482015262616c7360e81b6064820152608490fd5b60405162461bcd60e51b815260206004820152601c60248201527f466c6f77467573696f6e3a2057696e646f7720746f6f206c61726765000000006044820152606490fd5b60405162461bcd60e51b815260206004820152601c60248201527f466c6f77467573696f6e3a2057696e646f7720746f6f20736d616c6c000000006044820152606490fd5b60405162461bcd60e51b815260206004820152601b60248201527f466c6f77467573696f6e3a20546f6f206d616e79206f726465727300000000006044820152606490fd5b60405162461bcd60e51b815260206004820152601c60248201527f466c6f77467573696f6e3a2054696d656f757420746f6f20736f6f6e000000006044820152606490fd5b634e487b7160e01b600052601160045260246000fd5b60405162461bcd60e51b815260206004820152601d60248201527f466c6f77467573696f6e3a20496e76616c69642048544c4320686173680000006044820152606490fd5b60405162461bcd60e51b815260206004820152601d60248201527f466c6f77467573696f6e3a20496e76616c696420726563697069656e740000006044820152606490fd5b606460405162461bcd60e51b815260206004820152602060248201527f466c6f77467573696f6e3a20496e76616c69642074617267657420746f6b656e6044820152fd5b60405162461bcd60e51b8152602060048201526024808201527f466c6f77467573696f6e3a20556e737570706f727465642074617267657420636044820152633430b4b760e11b6064820152608490fd5b60405162461bcd60e51b815260206004820152601c60248201527f466c6f77467573696f6e3a20416d6f756e7420746f6f20736d616c6c000000006044820152606490fd5b346102aa5760203660031901126102aa576004356001600160401b0381116102aa5760206103d861264b923690600401612896565b600590820190815203019020805460ff19169055005b346102aa5760003660031901126102aa5761267a612d8f565b60015460ff8116156126b95760ff19166001557f5db9ee0a495bf2e6ff9c91a7834c1ba4fdd244a5e8aa4e537bd38aeae4b073aa6020604051338152a1005b604051638dfc202b60e01b8152600490fd5b346102aa5760003660031901126102aa5760206040516105a08152f35b346102aa5760003660031901126102aa576020600954604051908152f35b346102aa576020806003193601126102aa5760043560005260048152604060002090815461273381612b1a565b906127416040519283612875565b8082528282018094600052836000206000915b8383106127be5760408051878152865181890181905289928201908960005b8281106127805784840385f35b85518051855280830151858401526040808201519086015260608082015190860152608090810151908501529481019460a090930192600101612773565b6005866001926040516127d081612823565b855481528486015483820152600286015460408201526003860154606082015260048601546080820152815201920192019190612754565b346102aa5760003660031901126102aa576020906008548152f35b60a081019081106001600160401b03821117611eb757604052565b6101e081019081106001600160401b03821117611eb757604052565b604081019081106001600160401b03821117611eb757604052565b90601f801991011681019081106001600160401b03821117611eb757604052565b81601f820112156102aa578035906001600160401b038211611eb757604051926128ca601f8401601f191660200185612875565b828452602083830101116102aa57816000926020809301838601378301015290565b600435906001600160a01b03821682036102aa57565b60005b8381106129155750506000910152565b8181015183820152602001612905565b9060209161293e81518092818552858086019101612902565b601f01601f1916010190565b906005821015610f9a5752565b602090602060408183019282815285518094520193019160005b82811061297f575050505090565b835185529381019392810192600101612971565b80548210156129ab5760005260206000200190600090565b634e487b7160e01b600052603260045260246000fd5b90600182811c921680156129f1575b60208310146129db57565b634e487b7160e01b600052602260045260246000fd5b91607f16916129d0565b90604051918260008254612a0e816129c1565b90818452602094600191600181169081600014612a7e5750600114612a3f575b505050612a3d92500383612875565b565b600090815285812095935091905b818310612a66575050612a3d9350820101388080612a2e565b85548884018501529485019487945091830191612a4d565b92505050612a3d94925060ff191682840152151560051b820101388080612a2e565b90604051612aad81612823565b608060ff60048395805485526001810154602086015260028101546040860152600381015460608601520154161515910152565b80548210156129ab576000526005602060002091020190600090565b346102aa5760003660031901126102aa5760206040516103e88152f35b6001600160401b038111611eb75760051b60200190565b9190820180921161249c57565b8181029291811591840414171561249c57565b8115612b5b570490565b634e487b7160e01b600052601260045260246000fd5b9190820391821161249c57565b600019811461249c5760010190565b90604051612b9a8161283e565b8254815260018301546001600160a01b039081166020830152600284015416604082015260038301546060820152918290612bd7600482016129fb565b6080830152612be8600582016129fb565b60a0830152612bf9600682016129fb565b60c0830152612c0a60078201612aa0565b60e0830152600c810154610100830152600d810154610120830152600e810154610140830152600f810154610160830152601081015461018083015260ff6011820154166005811015610f9a576101c0916012916101a08501520154910152565b15612c7257565b606460405162461bcd60e51b815260206004820152602060248201527f466c6f77467573696f6e3a204f7264657220646f6573206e6f742065786973746044820152fd5b801561249c576000190190565b90612ccd82612b1a565b612cda6040519182612875565b8281528092612ceb601f1991612b1a565b0190602036910137565b80518210156129ab5760209160051b010190565b15612d1057565b60405162461bcd60e51b815260206004820152601d60248201527f466c6f77467573696f6e3a20536c69707061676520746f6f20686967680000006044820152606490fd5b6000526002602052612d6a6040600020612b8d565b6101808101518015612d895761095a60e0612d86930151612e4e565b90565b50504290565b60015460081c6001600160a01b03163303612da657565b60405163118cdaa760e01b8152336004820152602490fd5b600260005414612dcf576002600055565b604051633ee5aeb560e01b8152600490fd5b60ff60015416612ded57565b60405163d93c066560e01b8152600490fd5b60405163a9059cbb60e01b60208201526001600160a01b03909216602483015260448083019390935291815260808101916001600160401b03831182841017611eb757612a3d9260405261308b565b8051603c810290808204603c149015171561249c576020612d8692015190612b51565b9060009180835260049260209160048352604092838320918254612e9481612b1a565b93612ea187519586612875565b81855285528285208590848087015b848410612ff1575050505050825115612fe8579060029184525260e0612ed7848420612b8d565b015151603c810290808204603c1490151715612fd457612ef79042612b71565b92828094815b8451811015612fb65781612f118287612cf5565b51511015612f22575b600101612efd565b95948615612f9c57612f348786612cf5565b51516000198801888111612f8957612f7b60019361095a8b89612f69612f8197612f61612f73988f612cf5565b515190612b71565b9586925b8d612cf5565b510151612b3e565b97612b31565b969050612f1a565b634e487b7160e01b855260118b52602485fd5b612f81612f73612f7b60019361095a8b8987958692612f6d565b5095965094505082159050612fcf57612d869250612b51565b505090565b634e487b7160e01b83526011600452602483fd5b50919450505050565b6001916005918d8c519061300482612823565b8654825285870154848301528d6002880154908301526003870154606083015286015460808201528152019201920191908590612eb0565b908115613084578181811115613075579061305691612b71565b905b6127109182810292818404149015171561249c57612d8691612b51565b61307e91612b71565b90613058565b5050600090565b906000602091828151910182855af115611004576000513d6130de57506001600160a01b0381163b155b6130bc5750565b604051635274afe760e01b81526001600160a01b039091166004820152602490fd5b600114156130b556fea2646970667358221220c802a083c982c925697e15ad1a5e56e5ed038cc69f2dacccabcbf93ac34b1e3c64736f6c63430008180033","opcodes":"PUSH1 0x80 CALLVALUE PUSH3 0x287 JUMPI PUSH3 0x33C0 SWAP1 PUSH1 0x1F CODESIZE DUP4 SWAP1 SUB SWAP1 DUP2 ADD PUSH1 0x1F NOT AND DUP3 ADD SWAP1 PUSH1 0x1 PUSH1 0x1 PUSH1 0x40 SHL SUB DUP3 GT DUP4 DUP4 LT OR PUSH3 0x28C JUMPI DUP1 DUP4 SWAP2 PUSH1 0x40 SWAP6 DUP7 SWAP5 DUP6 MSTORE DUP4 CODECOPY DUP2 ADD SUB SLT PUSH3 0x287 JUMPI DUP1 MLOAD PUSH1 0x1 PUSH1 0x1 PUSH1 0xA0 SHL SUB SWAP2 DUP3 DUP3 AND SWAP2 DUP3 SWAP1 SUB PUSH3 0x287 JUMPI PUSH1 0x20 ADD MLOAD SWAP1 PUSH1 0x1 SWAP3 DUP4 PUSH1 0x0 SSTORE CALLER ISZERO PUSH3 0x26F JUMPI DUP4 SLOAD PUSH2 0x100 PUSH1 0x1 PUSH1 0xA8 SHL SUB NOT DUP2 AND CALLER PUSH1 0x8 DUP2 DUP2 SHL PUSH2 0x100 PUSH1 0x1 PUSH1 0xA8 SHL SUB AND SWAP3 SWAP1 SWAP3 OR DUP8 SSTORE DUP8 MLOAD SWAP4 SWAP1 SWAP3 SWAP1 SWAP2 SHR AND PUSH32 0x8BE0079C531659141344CD1FD0A4F28419497F9722A3DAAFE3B4186F6B6457E0 PUSH1 0x0 DUP1 LOG3 PUSH1 0x64 PUSH1 0xD SSTORE DUP2 ISZERO PUSH3 0x223 JUMPI POP PUSH1 0x64 DUP3 GT PUSH3 0x1DF JUMPI PUSH1 0x1 DUP1 PUSH1 0xA0 SHL SUB NOT PUSH1 0xB SLOAD AND OR PUSH1 0xB SSTORE PUSH1 0xC SSTORE DUP2 MLOAD SWAP1 PUSH6 0x636F736D6F73 PUSH1 0xD0 SHL DUP3 MSTORE PUSH1 0x28 PUSH1 0x26 PUSH1 0x5 SWAP4 DUP5 PUSH1 0x6 DUP3 ADD MSTORE KECCAK256 SWAP3 PUSH1 0xFF NOT SWAP4 DUP4 DUP6 DUP3 SLOAD AND OR SWAP1 SSTORE PUSH1 0x27 DUP6 MLOAD PUSH7 0x39BA32B63630B9 PUSH1 0xC9 SHL DUP2 MSTORE DUP3 PUSH1 0x7 DUP3 ADD MSTORE KECCAK256 DUP4 DUP6 DUP3 SLOAD AND OR SWAP1 SSTORE PUSH1 0x27 DUP6 MLOAD PUSH7 0x3134BA31B7B4B7 PUSH1 0xC9 SHL DUP2 MSTORE DUP3 PUSH1 0x7 DUP3 ADD MSTORE KECCAK256 DUP4 DUP6 DUP3 SLOAD AND OR SWAP1 SSTORE DUP2 DUP6 MLOAD PUSH8 0x657468657265756D PUSH1 0xC0 SHL DUP2 MSTORE DUP3 PUSH1 0x8 DUP3 ADD MSTORE KECCAK256 DUP4 DUP6 DUP3 SLOAD AND OR SWAP1 SSTORE PUSH1 0x27 DUP6 MLOAD PUSH7 0x3837B63CB3B7B7 PUSH1 0xC9 SHL DUP2 MSTORE DUP3 PUSH1 0x7 DUP3 ADD MSTORE KECCAK256 DUP4 DUP6 DUP3 SLOAD AND OR SWAP1 SSTORE DUP2 DUP6 MLOAD PUSH8 0x617262697472756D PUSH1 0xC0 SHL DUP2 MSTORE DUP3 PUSH1 0x8 DUP3 ADD MSTORE KECCAK256 DUP4 DUP6 DUP3 SLOAD AND OR SWAP1 SSTORE DUP5 MLOAD SWAP1 PUSH8 0x6F7074696D69736D PUSH1 0xC0 SHL DUP3 MSTORE PUSH1 0x8 DUP3 ADD MSTORE KECCAK256 SWAP2 DUP3 SLOAD AND OR SWAP1 SSTORE MLOAD PUSH2 0x311D SWAP1 DUP2 PUSH3 0x2A3 DUP3 CODECOPY RETURN JUMPDEST DUP4 MLOAD PUSH3 0x461BCD PUSH1 0xE5 SHL DUP2 MSTORE PUSH1 0x20 PUSH1 0x4 DUP3 ADD MSTORE PUSH1 0x1D PUSH1 0x24 DUP3 ADD MSTORE PUSH32 0x466C6F77467573696F6E3A20466565207261746520746F6F2068696768000000 PUSH1 0x44 DUP3 ADD MSTORE PUSH1 0x64 SWAP1 REVERT JUMPDEST PUSH3 0x461BCD PUSH1 0xE5 SHL DUP2 MSTORE PUSH1 0x20 PUSH1 0x4 DUP3 ADD MSTORE PUSH1 0x21 PUSH1 0x24 DUP3 ADD MSTORE PUSH32 0x466C6F77467573696F6E3A20496E76616C69642066656520636F6C6C6563746F PUSH1 0x44 DUP3 ADD MSTORE PUSH1 0x39 PUSH1 0xF9 SHL PUSH1 0x64 DUP3 ADD MSTORE PUSH1 0x84 SWAP1 REVERT JUMPDEST DUP5 MLOAD PUSH4 0x1E4FBDF7 PUSH1 0xE0 SHL DUP2 MSTORE PUSH1 0x0 PUSH1 0x4 DUP3 ADD MSTORE PUSH1 0x24 SWAP1 REVERT JUMPDEST PUSH1 0x0 DUP1 REVERT JUMPDEST PUSH4 0x4E487B71 PUSH1 0xE0 SHL PUSH1 0x0 MSTORE PUSH1 0x41 PUSH1 0x4 MSTORE PUSH1 0x24 PUSH1 0x0 REVERT INVALID PUSH1 0x80 DUP1 PUSH1 0x40 MSTORE PUSH1 0x4 CALLDATASIZE LT ISZERO PUSH2 0xA8 JUMPI JUMPDEST POP CALLDATASIZE ISZERO PUSH2 0x5B JUMPI PUSH1 0x40 MLOAD PUSH3 0x461BCD PUSH1 0xE5 SHL DUP2 MSTORE PUSH1 0x20 PUSH1 0x4 DUP3 ADD MSTORE PUSH1 0x1E PUSH1 0x24 DUP3 ADD MSTORE PUSH32 0x466C6F77467573696F6E3A2046756E6374696F6E206E6F7420666F756E640000 PUSH1 0x44 DUP3 ADD MSTORE PUSH1 0x64 SWAP1 REVERT JUMPDEST CALLVALUE ISZERO PUSH2 0x63 JUMPI STOP JUMPDEST PUSH1 0x40 MLOAD PUSH3 0x461BCD PUSH1 0xE5 SHL DUP2 MSTORE PUSH1 0x20 PUSH1 0x4 DUP3 ADD MSTORE PUSH1 0x17 PUSH1 0x24 DUP3 ADD MSTORE PUSH32 0x466C6F77467573696F6E3A204E6F204554482073656E74000000000000000000 PUSH1 0x44 DUP3 ADD MSTORE PUSH1 0x64 SWAP1 REVERT JUMPDEST PUSH1 0x0 CALLDATALOAD PUSH1 0xE0 SHR SWAP1 DUP2 PUSH4 0x16F8DE89 EQ PUSH2 0x2808 JUMPI POP DUP1 PUSH4 0x1833F0CF EQ PUSH2 0x2706 JUMPI DUP1 PUSH4 0x1D834409 EQ PUSH2 0x26E8 JUMPI DUP1 PUSH4 0x1DEF6FFE EQ PUSH2 0x26CB JUMPI DUP1 PUSH4 0x3F4BA83A EQ PUSH2 0x2661 JUMPI DUP1 PUSH4 0x46560023 EQ PUSH2 0x2616 JUMPI DUP1 PUSH4 0x518479B3 EQ PUSH2 0x187A JUMPI DUP1 PUSH4 0x5778472A EQ PUSH2 0x169F JUMPI DUP1 PUSH4 0x58F85880 EQ PUSH2 0x1681 JUMPI DUP1 PUSH4 0x5C975ABB EQ PUSH2 0x165E JUMPI DUP1 PUSH4 0x5D830DD1 EQ PUSH2 0x1640 JUMPI DUP1 PUSH4 0x5F81A57C EQ PUSH2 0x1622 JUMPI DUP1 PUSH4 0x60C7BAE2 EQ PUSH2 0x15E0 JUMPI DUP1 PUSH4 0x6340D55C EQ PUSH2 0x1572 JUMPI DUP1 PUSH4 0x63C69F08 EQ PUSH2 0x14EB JUMPI DUP1 PUSH4 0x679D86A7 EQ PUSH2 0x14AC JUMPI DUP1 PUSH4 0x6C30AAA2 EQ PUSH2 0x145E JUMPI DUP1 PUSH4 0x715018A6 EQ PUSH2 0x13FD JUMPI DUP1 PUSH4 0x7489EC23 EQ PUSH2 0x121E JUMPI DUP1 PUSH4 0x8456CB59 EQ PUSH2 0x11C5 JUMPI DUP1 PUSH4 0x856652E9 EQ PUSH2 0x116C JUMPI DUP1 PUSH4 0x8CE2EC79 EQ PUSH2 0x105A JUMPI DUP1 PUSH4 0x8DA5CB5B EQ PUSH2 0x102D JUMPI DUP1 PUSH4 0x95CCEA67 EQ PUSH2 0xFB0 JUMPI DUP1 PUSH4 0x9755DCA0 EQ PUSH2 0xE19 JUMPI DUP1 PUSH4 0x9C3F1E90 EQ PUSH2 0xCBB JUMPI DUP1 PUSH4 0x9CAC0FB2 EQ PUSH2 0xC4F JUMPI DUP1 PUSH4 0xA3F1C420 EQ PUSH2 0x648 JUMPI DUP1 PUSH4 0xA6329C7F EQ PUSH2 0x5D9 JUMPI DUP1 PUSH4 0xA89A6F69 EQ PUSH2 0x5BB JUMPI DUP1 PUSH4 0xB2A7F494 EQ PUSH2 0x52B JUMPI DUP1 PUSH4 0xC415B95C EQ PUSH2 0x502 JUMPI DUP1 PUSH4 0xD2C35CE8 EQ PUSH2 0x46B JUMPI DUP1 PUSH4 0xD62E5D79 EQ PUSH2 0x44F JUMPI DUP1 PUSH4 0xDC33597D EQ PUSH2 0x429 JUMPI DUP1 PUSH4 0xE1F1C4A7 EQ PUSH2 0x40C JUMPI DUP1 PUSH4 0xE5EB8A89 EQ PUSH2 0x3A3 JUMPI DUP1 PUSH4 0xE6A73B63 EQ PUSH2 0x387 JUMPI DUP1 PUSH4 0xEC4EB4F9 EQ PUSH2 0x34D JUMPI DUP1 PUSH4 0xF2FDE38B EQ PUSH2 0x2B4 JUMPI DUP1 PUSH4 0xF9759518 EQ PUSH2 0x2AF JUMPI DUP1 PUSH4 0xFCA98AC6 EQ PUSH2 0x2AF JUMPI PUSH4 0xFFA1AD74 EQ PUSH2 0x28E JUMPI CODESIZE PUSH2 0xF JUMP JUMPDEST CALLVALUE PUSH2 0x2AA JUMPI PUSH1 0x0 CALLDATASIZE PUSH1 0x3 NOT ADD SLT PUSH2 0x2AA JUMPI PUSH1 0x20 PUSH1 0x40 MLOAD PUSH1 0x1 DUP2 MSTORE RETURN JUMPDEST PUSH1 0x0 DUP1 REVERT JUMPDEST PUSH2 0x2AFD JUMP JUMPDEST CALLVALUE PUSH2 0x2AA JUMPI PUSH1 0x20 CALLDATASIZE PUSH1 0x3 NOT ADD SLT PUSH2 0x2AA JUMPI PUSH2 0x2CD PUSH2 0x28EC JUMP JUMPDEST PUSH2 0x2D5 PUSH2 0x2D8F JUMP JUMPDEST PUSH1 0x1 PUSH1 0x1 PUSH1 0xA0 SHL SUB DUP2 DUP2 AND SWAP2 DUP3 ISZERO PUSH2 0x334 JUMPI PUSH1 0x1 DUP1 SLOAD PUSH2 0x100 PUSH1 0x1 PUSH1 0xA8 SHL SUB NOT DUP2 AND PUSH1 0x8 SWAP4 DUP5 SHL PUSH2 0x100 PUSH1 0x1 PUSH1 0xA8 SHL SUB AND OR SWAP1 SWAP2 SSTORE SWAP1 SHR AND PUSH32 0x8BE0079C531659141344CD1FD0A4F28419497F9722A3DAAFE3B4186F6B6457E0 PUSH1 0x0 DUP1 LOG3 STOP JUMPDEST PUSH1 0x40 MLOAD PUSH4 0x1E4FBDF7 PUSH1 0xE0 SHL DUP2 MSTORE PUSH1 0x0 PUSH1 0x4 DUP3 ADD MSTORE PUSH1 0x24 SWAP1 REVERT JUMPDEST CALLVALUE PUSH2 0x2AA JUMPI PUSH1 0x20 CALLDATASIZE PUSH1 0x3 NOT ADD SLT PUSH2 0x2AA JUMPI PUSH1 0x1 PUSH1 0x1 PUSH1 0xA0 SHL SUB PUSH2 0x36E PUSH2 0x28EC JUMP JUMPDEST AND PUSH1 0x0 MSTORE PUSH1 0x7 PUSH1 0x20 MSTORE PUSH1 0x20 PUSH1 0x40 PUSH1 0x0 KECCAK256 SLOAD PUSH1 0x40 MLOAD SWAP1 DUP2 MSTORE RETURN JUMPDEST CALLVALUE PUSH2 0x2AA JUMPI PUSH1 0x0 CALLDATASIZE PUSH1 0x3 NOT ADD SLT PUSH2 0x2AA JUMPI PUSH1 0x20 PUSH1 0x40 MLOAD PUSH1 0x5 DUP2 MSTORE RETURN JUMPDEST CALLVALUE PUSH2 0x2AA JUMPI PUSH1 0x20 CALLDATASIZE PUSH1 0x3 NOT ADD SLT PUSH2 0x2AA JUMPI PUSH1 0x4 CALLDATALOAD PUSH1 0x1 PUSH1 0x1 PUSH1 0x40 SHL SUB DUP2 GT PUSH2 0x2AA JUMPI PUSH1 0x20 PUSH2 0x3D8 PUSH2 0x3F3 SWAP3 CALLDATASIZE SWAP1 PUSH1 0x4 ADD PUSH2 0x2896 JUMP JUMPDEST PUSH2 0x3E0 PUSH2 0x2D8F JUMP JUMPDEST DUP2 PUSH1 0x40 MLOAD SWAP4 DUP3 DUP6 DUP1 SWAP5 MLOAD SWAP4 DUP5 SWAP3 ADD PUSH2 0x2902 JUMP JUMPDEST PUSH1 0x5 SWAP1 DUP3 ADD SWAP1 DUP2 MSTORE SUB ADD SWAP1 KECCAK256 DUP1 SLOAD PUSH1 0xFF NOT AND PUSH1 0x1 OR SWAP1 SSTORE STOP JUMPDEST CALLVALUE PUSH2 0x2AA JUMPI PUSH1 0x0 CALLDATASIZE PUSH1 0x3 NOT ADD SLT PUSH2 0x2AA JUMPI PUSH1 0x20 PUSH1 0x40 MLOAD PUSH2 0x2710 DUP2 MSTORE RETURN JUMPDEST CALLVALUE PUSH2 0x2AA JUMPI PUSH1 0x20 CALLDATASIZE PUSH1 0x3 NOT ADD SLT PUSH2 0x2AA JUMPI PUSH1 0x20 PUSH2 0x447 PUSH1 0x4 CALLDATALOAD PUSH2 0x2D55 JUMP JUMPDEST PUSH1 0x40 MLOAD SWAP1 DUP2 MSTORE RETURN JUMPDEST CALLVALUE PUSH2 0x2AA JUMPI PUSH1 0x0 CALLDATASIZE PUSH1 0x3 NOT ADD SLT PUSH2 0x2AA JUMPI PUSH1 0x20 PUSH1 0x40 MLOAD PUSH1 0x14 DUP2 MSTORE RETURN JUMPDEST CALLVALUE PUSH2 0x2AA JUMPI PUSH1 0x20 CALLDATASIZE PUSH1 0x3 NOT ADD SLT PUSH2 0x2AA JUMPI PUSH2 0x484 PUSH2 0x28EC JUMP JUMPDEST PUSH2 0x48C PUSH2 0x2D8F JUMP JUMPDEST PUSH1 0x1 PUSH1 0x1 PUSH1 0xA0 SHL SUB AND DUP1 ISZERO PUSH2 0x4B3 JUMPI PUSH1 0x1 PUSH1 0x1 PUSH1 0x60 SHL SUB PUSH1 0xA0 SHL PUSH1 0xB SLOAD AND OR PUSH1 0xB SSTORE PUSH1 0x0 DUP1 RETURN JUMPDEST PUSH1 0x40 MLOAD PUSH3 0x461BCD PUSH1 0xE5 SHL DUP2 MSTORE PUSH1 0x20 PUSH1 0x4 DUP3 ADD MSTORE PUSH1 0x21 PUSH1 0x24 DUP3 ADD MSTORE PUSH32 0x466C6F77467573696F6E3A20496E76616C69642066656520636F6C6C6563746F PUSH1 0x44 DUP3 ADD MSTORE PUSH1 0x39 PUSH1 0xF9 SHL PUSH1 0x64 DUP3 ADD MSTORE PUSH1 0x84 SWAP1 REVERT JUMPDEST CALLVALUE PUSH2 0x2AA JUMPI PUSH1 0x0 CALLDATASIZE PUSH1 0x3 NOT ADD SLT PUSH2 0x2AA JUMPI PUSH1 0xB SLOAD PUSH1 0x40 MLOAD PUSH1 0x1 PUSH1 0x1 PUSH1 0xA0 SHL SUB SWAP1 SWAP2 AND DUP2 MSTORE PUSH1 0x20 SWAP1 RETURN JUMPDEST CALLVALUE PUSH2 0x2AA JUMPI PUSH1 0x20 CALLDATASIZE PUSH1 0x3 NOT ADD SLT PUSH2 0x2AA JUMPI PUSH2 0x544 PUSH2 0x28EC JUMP JUMPDEST PUSH2 0x54C PUSH2 0x2D8F JUMP JUMPDEST PUSH1 0x1 PUSH1 0x1 PUSH1 0xA0 SHL SUB AND DUP1 ISZERO PUSH2 0x576 JUMPI PUSH1 0x0 SWAP1 DUP2 MSTORE PUSH1 0x6 PUSH1 0x20 MSTORE PUSH1 0x40 SWAP1 KECCAK256 DUP1 SLOAD PUSH1 0xFF NOT AND PUSH1 0x1 OR SWAP1 SSTORE STOP JUMPDEST PUSH1 0x40 MLOAD PUSH3 0x461BCD PUSH1 0xE5 SHL DUP2 MSTORE PUSH1 0x20 PUSH1 0x4 DUP3 ADD MSTORE PUSH1 0x1C PUSH1 0x24 DUP3 ADD MSTORE PUSH32 0x466C6F77467573696F6E3A20496E76616C6964206578656375746F7200000000 PUSH1 0x44 DUP3 ADD MSTORE PUSH1 0x64 SWAP1 REVERT JUMPDEST CALLVALUE PUSH2 0x2AA JUMPI PUSH1 0x20 CALLDATASIZE PUSH1 0x3 NOT ADD SLT PUSH2 0x2AA JUMPI PUSH1 0x20 PUSH2 0x447 PUSH1 0x4 CALLDATALOAD PUSH2 0x2E71 JUMP JUMPDEST CALLVALUE PUSH2 0x2AA JUMPI PUSH1 0x40 CALLDATASIZE PUSH1 0x3 NOT ADD SLT PUSH2 0x2AA JUMPI PUSH1 0x24 CALLDATALOAD PUSH1 0x4 CALLDATALOAD PUSH1 0x0 MSTORE PUSH1 0x4 PUSH1 0x20 MSTORE PUSH1 0x40 PUSH1 0x0 KECCAK256 DUP1 SLOAD DUP3 LT ISZERO PUSH2 0x2AA JUMPI PUSH1 0xA0 SWAP2 PUSH2 0x612 SWAP2 PUSH2 0x2AE1 JUMP JUMPDEST POP DUP1 SLOAD SWAP1 PUSH1 0x1 DUP2 ADD SLOAD SWAP1 PUSH1 0x2 DUP2 ADD SLOAD PUSH1 0x4 PUSH1 0x3 DUP4 ADD SLOAD SWAP3 ADD SLOAD SWAP3 PUSH1 0x40 MLOAD SWAP5 DUP6 MSTORE PUSH1 0x20 DUP6 ADD MSTORE PUSH1 0x40 DUP5 ADD MSTORE PUSH1 0x60 DUP4 ADD MSTORE PUSH1 0x80 DUP3 ADD MSTORE RETURN JUMPDEST CALLVALUE PUSH2 0x2AA JUMPI PUSH1 0x80 CALLDATASIZE PUSH1 0x3 NOT ADD SLT PUSH2 0x2AA JUMPI PUSH1 0x1 PUSH1 0x1 PUSH1 0x40 SHL SUB PUSH1 0x24 PUSH1 0x64 PUSH1 0x44 DUP2 CALLDATALOAD DUP5 DUP2 GT PUSH2 0x2AA JUMPI CALLDATASIZE PUSH1 0x23 DUP3 ADD SLT ISZERO PUSH2 0x2AA JUMPI DUP1 PUSH1 0x4 ADD CALLDATALOAD SWAP5 DUP6 GT PUSH2 0x2AA JUMPI DUP4 DUP6 CALLDATASIZE SWAP3 ADD ADD GT PUSH2 0x2AA JUMPI CALLER PUSH1 0x0 MSTORE PUSH1 0x6 PUSH1 0x20 MSTORE PUSH1 0xFF PUSH1 0x40 PUSH1 0x0 KECCAK256 SLOAD AND ISZERO PUSH2 0xC01 JUMPI PUSH1 0x4 CALLDATALOAD PUSH1 0x0 SWAP1 DUP2 MSTORE PUSH1 0x2 PUSH1 0x20 MSTORE PUSH1 0x40 SWAP1 KECCAK256 PUSH1 0x1 ADD SLOAD PUSH2 0x6D2 SWAP1 PUSH1 0x1 PUSH1 0x1 PUSH1 0xA0 SHL SUB AND ISZERO ISZERO PUSH2 0x2C6B JUMP JUMPDEST PUSH1 0x4 CALLDATALOAD PUSH1 0x0 MSTORE PUSH1 0x2 PUSH1 0x20 MSTORE PUSH1 0xFF PUSH1 0x11 PUSH1 0x40 PUSH1 0x0 KECCAK256 ADD SLOAD AND PUSH1 0x5 DUP2 LT ISZERO PUSH2 0xBEC JUMPI PUSH2 0xBAB JUMPI PUSH2 0x6FE PUSH2 0x2DBE JUMP JUMPDEST PUSH1 0x4 CALLDATALOAD PUSH1 0x0 MSTORE PUSH1 0x2 PUSH1 0x20 MSTORE PUSH1 0x40 PUSH1 0x0 KECCAK256 SWAP4 DUP4 CALLDATALOAD ISZERO PUSH2 0xB5D JUMPI PUSH1 0x3 DUP6 ADD SLOAD SWAP3 PUSH1 0xF DUP7 ADD SLOAD SWAP2 PUSH2 0x72C DUP4 DUP7 PUSH2 0x2B71 JUMP JUMPDEST DUP7 CALLDATALOAD GT PUSH2 0xB1C JUMPI PUSH1 0xD DUP8 ADD SLOAD NUMBER LT ISZERO PUSH2 0xADB JUMPI PUSH2 0x753 PUSH2 0x74E PUSH1 0x7 DUP10 ADD PUSH2 0x2AA0 JUMP JUMPDEST PUSH2 0x2E4E JUMP JUMPDEST PUSH1 0x10 DUP9 ADD SLOAD SWAP1 DUP2 ISZERO SWAP2 DUP3 ISZERO PUSH2 0xAC7 JUMPI JUMPDEST POP POP ISZERO PUSH2 0xA74 JUMPI DUP4 CALLDATALOAD ISZERO ISZERO SWAP1 DUP2 PUSH2 0xA6A JUMPI JUMPDEST POP ISZERO PUSH2 0xA2A JUMPI PUSH2 0x786 PUSH1 0x4 CALLDATALOAD PUSH2 0x2E71 JUMP JUMPDEST SWAP4 DUP5 ISZERO ISZERO SWAP3 DUP4 PUSH2 0xA0B JUMPI JUMPDEST PUSH1 0xA DUP9 ADD SLOAD DUP8 CALLDATALOAD LT SWAP2 DUP3 ISZERO SWAP3 PUSH2 0x9F7 JUMPI JUMPDEST POP POP ISZERO PUSH2 0x9A9 JUMPI POP PUSH1 0x4 CALLDATALOAD PUSH1 0x0 MSTORE PUSH1 0x4 PUSH1 0x20 MSTORE PUSH1 0x40 PUSH1 0x0 KECCAK256 DUP1 SLOAD SWAP4 GAS SWAP3 ISZERO PUSH2 0x9A1 JUMPI PUSH2 0x7D0 SWAP1 DUP5 CALLDATALOAD SWAP1 PUSH2 0x303C JUMP JUMPDEST PUSH1 0x40 MLOAD SWAP3 PUSH2 0x7DD DUP5 PUSH2 0x2823 JUMP JUMPDEST TIMESTAMP DUP5 MSTORE DUP7 CALLDATALOAD PUSH1 0x20 DUP6 ADD MSTORE DUP5 CALLDATALOAD PUSH1 0x40 DUP6 ADD MSTORE PUSH1 0x60 DUP5 ADD MSTORE PUSH1 0x80 DUP4 ADD MSTORE PUSH1 0x1 PUSH1 0x40 SHL DUP5 LT ISZERO PUSH2 0x98C JUMPI DUP4 PUSH2 0x814 SWAP2 PUSH1 0x1 DUP3 ADD DUP2 SSTORE PUSH2 0x2AE1 JUMP JUMPDEST SWAP2 SWAP1 SWAP2 PUSH2 0x977 JUMPI PUSH1 0x80 DUP2 PUSH1 0x4 SWAP3 MLOAD DUP5 SSTORE PUSH1 0x20 DUP2 ADD MLOAD PUSH1 0x1 DUP6 ADD SSTORE PUSH1 0x40 DUP2 ADD MLOAD PUSH1 0x2 DUP6 ADD SSTORE PUSH1 0x60 DUP2 ADD MLOAD PUSH1 0x3 DUP6 ADD SSTORE ADD MLOAD SWAP2 ADD SSTORE PUSH2 0x856 DUP4 CALLDATALOAD PUSH1 0xF DUP7 ADD SLOAD PUSH2 0x2B31 JUMP JUMPDEST PUSH1 0xF DUP6 ADD SSTORE TIMESTAMP PUSH1 0x10 DUP6 ADD SSTORE PUSH1 0x12 DUP5 ADD SWAP3 DUP4 SLOAD ISZERO PUSH1 0x0 EQ PUSH2 0x925 JUMPI DUP2 CALLDATALOAD DUP5 SSTORE JUMPDEST PUSH1 0x40 MLOAD SWAP3 DUP4 MSTORE CALLDATALOAD PUSH1 0x20 DUP4 ADD MSTORE CALLDATALOAD PUSH1 0x40 DUP3 ADD MSTORE TIMESTAMP PUSH1 0x60 DUP3 ADD MSTORE CALLER PUSH1 0x80 DUP3 ADD MSTORE PUSH32 0xE4096EAA9AA9B8F8E8CA77DF4DFF5052B5D6282C11B6653AFBCA6A5A7574C8DA PUSH1 0xA0 PUSH1 0x4 CALLDATALOAD SWAP3 LOG2 PUSH1 0xF DUP3 ADD SLOAD SWAP2 PUSH1 0x3 DUP2 ADD SLOAD DUP4 LT ISZERO PUSH2 0x8D5 JUMPI JUMPDEST PUSH1 0x1 PUSH1 0x0 SSTORE STOP JUMPDEST PUSH1 0x11 ADD PUSH1 0x1 PUSH1 0xFF NOT DUP3 SLOAD AND OR SWAP1 SSTORE SLOAD PUSH1 0x40 MLOAD SWAP2 DUP3 MSTORE PUSH1 0x20 DUP3 ADD MSTORE TIMESTAMP PUSH1 0x40 DUP3 ADD MSTORE PUSH32 0xDE99CE77AC3AE0048F3C53988BC6EE856041365B692310C98F709F2E2A6CFBEA PUSH1 0x60 PUSH1 0x4 CALLDATALOAD SWAP3 LOG2 DUP1 DUP1 DUP1 PUSH2 0x8CE JUMP JUMPDEST PUSH2 0x970 PUSH2 0x931 DUP7 PUSH2 0x2B8D JUMP JUMPDEST PUSH2 0x96A PUSH2 0x960 PUSH2 0x94E PUSH2 0x160 PUSH2 0x1C0 DUP6 ADD MLOAD SWAP5 ADD SWAP4 DUP5 MLOAD SWAP1 PUSH2 0x2B3E JUMP JUMPDEST PUSH2 0x95A DUP7 CALLDATALOAD DUP9 CALLDATALOAD PUSH2 0x2B3E JUMP JUMPDEST SWAP1 PUSH2 0x2B31 JUMP JUMPDEST SWAP2 DUP5 CALLDATALOAD SWAP1 MLOAD PUSH2 0x2B31 JUMP JUMPDEST SWAP1 PUSH2 0x2B51 JUMP JUMPDEST DUP5 SSTORE PUSH2 0x875 JUMP JUMPDEST DUP5 PUSH4 0x4E487B71 PUSH1 0xE0 SHL PUSH1 0x0 MSTORE PUSH1 0x0 PUSH1 0x4 MSTORE PUSH1 0x0 REVERT JUMPDEST DUP5 PUSH4 0x4E487B71 PUSH1 0xE0 SHL PUSH1 0x0 MSTORE PUSH1 0x41 PUSH1 0x4 MSTORE PUSH1 0x0 REVERT JUMPDEST POP PUSH1 0x0 PUSH2 0x7D0 JUMP JUMPDEST DUP5 PUSH3 0x697A65 PUSH1 0xE8 SHL PUSH1 0x84 SWAP3 PUSH32 0x466C6F77467573696F6E3A2042656C6F77206D696E696D756D2066696C6C2073 DUP7 PUSH1 0x23 PUSH1 0x40 MLOAD SWAP6 PUSH3 0x461BCD PUSH1 0xE5 SHL DUP8 MSTORE PUSH1 0x20 PUSH1 0x4 DUP9 ADD MSTORE DUP7 ADD MSTORE DUP5 ADD MSTORE DUP3 ADD MSTORE REVERT JUMPDEST PUSH2 0xA01 SWAP3 POP PUSH2 0x2B71 JUMP JUMPDEST DUP6 CALLDATALOAD EQ DUP8 DUP1 PUSH2 0x7A2 JUMP JUMPDEST PUSH2 0xA25 PUSH2 0xA19 DUP7 CALLDATALOAD DUP9 PUSH2 0x303C JUMP JUMPDEST PUSH1 0x9 DUP11 ADD SLOAD LT ISZERO PUSH2 0x2D09 JUMP JUMPDEST PUSH2 0x791 JUMP JUMPDEST PUSH1 0x40 MLOAD PUSH3 0x461BCD PUSH1 0xE5 SHL DUP2 MSTORE PUSH1 0x20 PUSH1 0x4 DUP3 ADD MSTORE PUSH1 0x19 DUP2 DUP8 ADD MSTORE PUSH32 0x466C6F77467573696F6E3A20496E76616C696420707269636500000000000000 DUP2 DUP6 ADD MSTORE REVERT JUMPDEST SWAP1 POP ISZERO ISZERO DUP8 PUSH2 0x775 JUMP JUMPDEST PUSH1 0x40 MLOAD PUSH3 0x461BCD PUSH1 0xE5 SHL DUP2 MSTORE PUSH1 0x20 PUSH1 0x4 DUP3 ADD MSTORE PUSH1 0x28 DUP2 DUP9 ADD MSTORE PUSH32 0x466C6F77467573696F6E3A20546F6F206561726C7920666F72206E6578742065 DUP2 DUP7 ADD MSTORE PUSH8 0x3C32B1BABA34B7B7 PUSH1 0xC1 SHL DUP2 DUP5 ADD MSTORE PUSH1 0x84 SWAP1 REVERT JUMPDEST PUSH2 0xAD1 SWAP3 POP PUSH2 0x2B31 JUMP JUMPDEST TIMESTAMP LT ISZERO DUP9 DUP1 PUSH2 0x763 JUMP JUMPDEST POP PUSH1 0x40 MLOAD PUSH3 0x461BCD PUSH1 0xE5 SHL DUP2 MSTORE PUSH1 0x20 PUSH1 0x4 DUP3 ADD MSTORE PUSH1 0x19 DUP2 DUP8 ADD MSTORE PUSH32 0x466C6F77467573696F6E3A204F72646572206578706972656400000000000000 DUP2 DUP6 ADD MSTORE REVERT JUMPDEST POP PUSH1 0x40 MLOAD PUSH3 0x461BCD PUSH1 0xE5 SHL DUP2 MSTORE PUSH1 0x20 PUSH1 0x4 DUP3 ADD MSTORE PUSH1 0x1D DUP2 DUP8 ADD MSTORE PUSH32 0x466C6F77467573696F6E3A20457863656564732072656D61696E696E67000000 DUP2 DUP6 ADD MSTORE REVERT JUMPDEST PUSH1 0x40 MLOAD PUSH3 0x461BCD PUSH1 0xE5 SHL DUP2 MSTORE PUSH1 0x20 PUSH1 0x4 DUP3 ADD MSTORE PUSH1 0x23 DUP2 DUP7 ADD MSTORE PUSH32 0x466C6F77467573696F6E3A20496E76616C696420696E74657276616C20616D6F DUP2 DUP5 ADD MSTORE PUSH3 0x1D5B9D PUSH1 0xEA SHL DUP2 DUP6 ADD MSTORE PUSH1 0x84 SWAP1 REVERT JUMPDEST PUSH32 0x466C6F77467573696F6E3A204F72646572206E6F742061637469766500000000 DUP4 SWAP2 PUSH1 0x1C PUSH1 0x40 MLOAD SWAP4 PUSH3 0x461BCD PUSH1 0xE5 SHL DUP6 MSTORE PUSH1 0x20 PUSH1 0x4 DUP7 ADD MSTORE DUP5 ADD MSTORE DUP3 ADD MSTORE REVERT JUMPDEST DUP4 PUSH4 0x4E487B71 PUSH1 0xE0 SHL PUSH1 0x0 MSTORE PUSH1 0x21 PUSH1 0x4 MSTORE PUSH1 0x0 REVERT JUMPDEST PUSH1 0x84 SWAP3 SWAP2 PUSH32 0x466C6F77467573696F6E3A204E6F7420617574686F72697A6564206578656375 PUSH3 0x3A37B9 PUSH1 0xE9 SHL SWAP3 PUSH1 0x23 PUSH1 0x40 MLOAD SWAP6 PUSH3 0x461BCD PUSH1 0xE5 SHL DUP8 MSTORE PUSH1 0x20 PUSH1 0x4 DUP9 ADD MSTORE DUP7 ADD MSTORE DUP5 ADD MSTORE DUP3 ADD MSTORE REVERT JUMPDEST CALLVALUE PUSH2 0x2AA JUMPI PUSH1 0x20 CALLDATASIZE PUSH1 0x3 NOT ADD SLT PUSH2 0x2AA JUMPI PUSH1 0x4 CALLDATALOAD PUSH2 0xC6B PUSH2 0x2D8F JUMP JUMPDEST DUP1 ISZERO PUSH2 0xC76 JUMPI PUSH1 0xD SSTORE STOP JUMPDEST PUSH1 0x40 MLOAD PUSH3 0x461BCD PUSH1 0xE5 SHL DUP2 MSTORE PUSH1 0x20 PUSH1 0x4 DUP3 ADD MSTORE PUSH1 0x1E PUSH1 0x24 DUP3 ADD MSTORE PUSH32 0x466C6F77467573696F6E3A20496E76616C6964206D6178206F72646572730000 PUSH1 0x44 DUP3 ADD MSTORE PUSH1 0x64 SWAP1 REVERT JUMPDEST CALLVALUE PUSH2 0x2AA JUMPI PUSH1 0x20 CALLDATASIZE PUSH1 0x3 NOT ADD SLT PUSH2 0x2AA JUMPI PUSH1 0x4 CALLDATALOAD PUSH1 0x0 MSTORE PUSH1 0x2 PUSH1 0x20 MSTORE PUSH1 0x40 PUSH1 0x0 KECCAK256 DUP1 SLOAD SWAP1 PUSH1 0x1 PUSH1 0xA0 SHL PUSH1 0x1 SWAP1 SUB DUP1 PUSH1 0x1 DUP4 ADD SLOAD AND SWAP1 PUSH1 0x2 DUP4 ADD SLOAD AND SWAP3 PUSH1 0x3 DUP4 ADD SLOAD SWAP3 PUSH1 0x4 DUP2 ADD PUSH2 0xD0A SWAP1 PUSH2 0x29FB JUMP JUMPDEST SWAP3 PUSH2 0xD17 PUSH1 0x5 DUP4 ADD PUSH2 0x29FB JUMP JUMPDEST SWAP4 PUSH2 0xD24 PUSH1 0x6 DUP5 ADD PUSH2 0x29FB JUMP JUMPDEST SWAP5 PUSH2 0xD31 PUSH1 0x7 DUP6 ADD PUSH2 0x2AA0 JUMP JUMPDEST SWAP6 PUSH1 0xC DUP6 ADD SLOAD PUSH1 0xD DUP7 ADD SLOAD SWAP2 PUSH1 0xE DUP8 ADD SLOAD SWAP4 PUSH1 0xF DUP9 ADD SLOAD SWAP6 PUSH1 0x10 DUP10 ADD SLOAD SWAP8 PUSH1 0x11 DUP11 ADD SLOAD PUSH1 0xFF AND SWAP10 PUSH1 0x12 ADD SLOAD SWAP11 PUSH1 0x40 MLOAD SWAP15 DUP16 SWAP15 DUP16 SWAP2 PUSH2 0x260 SWAP5 DUP6 SWAP5 DUP5 MSTORE PUSH1 0x20 DUP5 ADD MSTORE PUSH1 0x40 DUP4 ADD MSTORE PUSH1 0x60 DUP3 ADD MSTORE PUSH1 0x80 ADD MSTORE DUP13 ADD PUSH2 0xD8B SWAP2 PUSH2 0x2925 JUMP JUMPDEST DUP12 DUP2 SUB PUSH1 0xA0 DUP14 ADD MSTORE PUSH2 0xD9C SWAP2 PUSH2 0x2925 JUMP JUMPDEST DUP11 DUP2 SUB PUSH1 0xC0 DUP13 ADD MSTORE PUSH2 0xDAD SWAP2 PUSH2 0x2925 JUMP JUMPDEST DUP9 MLOAD PUSH1 0xE0 DUP12 ADD MSTORE PUSH1 0x20 DUP10 ADD MLOAD PUSH2 0x100 DUP12 ADD MSTORE PUSH1 0x40 DUP10 ADD MLOAD PUSH2 0x120 DUP12 ADD MSTORE PUSH1 0x60 DUP10 ADD MLOAD PUSH2 0x140 DUP12 ADD MSTORE PUSH1 0x80 SWAP1 SWAP9 ADD MLOAD ISZERO ISZERO PUSH2 0x160 DUP11 ADD MSTORE PUSH2 0x180 DUP10 ADD MSTORE PUSH2 0x1A0 DUP9 ADD MSTORE PUSH2 0x1C0 DUP8 ADD MSTORE PUSH2 0x1E0 DUP7 ADD MSTORE PUSH2 0x200 DUP6 ADD MSTORE PUSH2 0x220 DUP5 ADD PUSH2 0xE0F SWAP2 PUSH2 0x294A JUMP JUMPDEST PUSH2 0x240 DUP4 ADD MSTORE SUB SWAP1 RETURN JUMPDEST CALLVALUE PUSH2 0x2AA JUMPI PUSH1 0x40 CALLDATASIZE PUSH1 0x3 NOT ADD SLT PUSH2 0x2AA JUMPI PUSH1 0x4 CALLDATALOAD PUSH1 0x24 CALLDATALOAD DUP2 PUSH1 0x0 MSTORE PUSH1 0x20 PUSH1 0x2 DUP2 MSTORE PUSH1 0x1 DUP1 PUSH1 0xA0 SHL SUB PUSH2 0xE56 DUP2 PUSH1 0x1 PUSH1 0x40 PUSH1 0x0 KECCAK256 ADD SLOAD AND ISZERO ISZERO PUSH2 0x2C6B JUMP JUMPDEST PUSH2 0xE5E PUSH2 0x2DBE JUMP JUMPDEST DUP4 PUSH1 0x0 MSTORE PUSH1 0x2 DUP3 MSTORE PUSH1 0x40 PUSH1 0x0 KECCAK256 PUSH1 0x11 DUP2 ADD DUP1 SLOAD PUSH1 0xFF DUP2 AND PUSH1 0x5 DUP2 LT ISZERO PUSH2 0xF9A JUMPI PUSH1 0x1 SUB PUSH2 0xF55 JUMPI PUSH1 0x40 MLOAD DUP6 DUP2 ADD SWAP1 DUP8 DUP3 MSTORE DUP7 DUP2 MSTORE PUSH2 0xE9B DUP2 PUSH2 0x285A JUMP JUMPDEST MLOAD SWAP1 KECCAK256 PUSH1 0xC DUP5 ADD SLOAD SUB PUSH2 0xF10 JUMPI PUSH1 0x60 SWAP5 SWAP3 PUSH32 0x600FFD9313A629C5ACDCB599E269730B878FF6653F1FC57F573686E2DF43FA13 SWAP7 SWAP5 SWAP3 PUSH1 0x4 PUSH1 0x1 SWAP4 PUSH1 0xFF NOT AND OR SWAP1 SSTORE ADD SLOAD AND PUSH1 0x0 MSTORE PUSH1 0x7 DUP2 MSTORE PUSH1 0x40 PUSH1 0x0 KECCAK256 PUSH2 0xEF5 DUP2 SLOAD PUSH2 0x2CB6 JUMP JUMPDEST SWAP1 SSTORE PUSH1 0x40 MLOAD SWAP2 DUP3 MSTORE CALLER SWAP1 DUP3 ADD MSTORE TIMESTAMP PUSH1 0x40 DUP3 ADD MSTORE LOG2 PUSH1 0x1 PUSH1 0x0 SSTORE STOP JUMPDEST PUSH1 0x40 MLOAD PUSH3 0x461BCD PUSH1 0xE5 SHL DUP2 MSTORE PUSH1 0x4 DUP2 ADD DUP7 SWAP1 MSTORE PUSH1 0x1A PUSH1 0x24 DUP3 ADD MSTORE PUSH32 0x466C6F77467573696F6E3A20496E76616C696420736563726574000000000000 PUSH1 0x44 DUP3 ADD MSTORE PUSH1 0x64 SWAP1 REVERT JUMPDEST PUSH1 0x40 MLOAD PUSH3 0x461BCD PUSH1 0xE5 SHL DUP2 MSTORE PUSH1 0x4 DUP2 ADD DUP7 SWAP1 MSTORE PUSH1 0x1F PUSH1 0x24 DUP3 ADD MSTORE PUSH32 0x466C6F77467573696F6E3A204F72646572206E6F7420636F6D706C6574656400 PUSH1 0x44 DUP3 ADD MSTORE PUSH1 0x64 SWAP1 REVERT JUMPDEST PUSH4 0x4E487B71 PUSH1 0xE0 SHL PUSH1 0x0 MSTORE PUSH1 0x21 PUSH1 0x4 MSTORE PUSH1 0x24 PUSH1 0x0 REVERT JUMPDEST CALLVALUE PUSH2 0x2AA JUMPI PUSH1 0x40 CALLDATASIZE PUSH1 0x3 NOT ADD SLT PUSH2 0x2AA JUMPI PUSH2 0xFC9 PUSH2 0x28EC JUMP JUMPDEST PUSH1 0x24 CALLDATALOAD SWAP1 PUSH2 0xFD5 PUSH2 0x2D8F JUMP JUMPDEST PUSH1 0x1 PUSH1 0x1 PUSH1 0xA0 SHL SUB SWAP1 DUP2 AND DUP1 PUSH2 0x1019 JUMPI POP PUSH1 0x0 DUP1 DUP1 SWAP4 DUP2 SWAP4 PUSH1 0x1 SLOAD PUSH1 0x8 SHR AND DUP3 DUP3 ISZERO PUSH2 0x1010 JUMPI JUMPDEST CALL ISZERO PUSH2 0x1004 JUMPI STOP JUMPDEST PUSH1 0x40 MLOAD RETURNDATASIZE PUSH1 0x0 DUP3 RETURNDATACOPY RETURNDATASIZE SWAP1 REVERT JUMPDEST POP PUSH2 0x8FC PUSH2 0xFFC JUMP JUMPDEST PUSH2 0x102B SWAP3 SWAP2 PUSH1 0x1 SLOAD PUSH1 0x8 SHR AND SWAP1 PUSH2 0x2DFF JUMP JUMPDEST STOP JUMPDEST CALLVALUE PUSH2 0x2AA JUMPI PUSH1 0x0 CALLDATASIZE PUSH1 0x3 NOT ADD SLT PUSH2 0x2AA JUMPI PUSH1 0x1 SLOAD PUSH1 0x40 MLOAD PUSH1 0x8 SWAP2 SWAP1 SWAP2 SHR PUSH1 0x1 PUSH1 0x1 PUSH1 0xA0 SHL SUB AND DUP2 MSTORE PUSH1 0x20 SWAP1 RETURN JUMPDEST CALLVALUE PUSH2 0x2AA JUMPI PUSH1 0x20 DUP1 PUSH1 0x3 NOT CALLDATASIZE ADD SLT PUSH2 0x2AA JUMPI PUSH1 0x5 PUSH1 0x4 CALLDATALOAD DUP2 DUP2 LT ISZERO SWAP1 DUP2 PUSH2 0x2AA JUMPI PUSH2 0x1086 PUSH1 0x9 SLOAD PUSH2 0x2CC3 JUMP JUMPDEST SWAP4 PUSH1 0x0 SWAP4 PUSH1 0x0 SWAP3 PUSH1 0x8 SLOAD SWAP4 JUMPDEST DUP5 DUP2 LT PUSH2 0x10E0 JUMPI DUP8 DUP8 PUSH2 0x10A4 DUP2 PUSH2 0x2CC3 JUMP JUMPDEST SWAP2 PUSH1 0x0 JUMPDEST DUP3 DUP2 LT PUSH2 0x10C1 JUMPI PUSH1 0x40 MLOAD DUP1 PUSH2 0x10BD DUP7 DUP3 PUSH2 0x2957 JUMP JUMPDEST SUB SWAP1 RETURN JUMPDEST DUP1 PUSH2 0x10CE PUSH1 0x1 SWAP3 DUP5 PUSH2 0x2CF5 JUMP JUMPDEST MLOAD PUSH2 0x10D9 DUP3 DUP8 PUSH2 0x2CF5 JUMP JUMPDEST MSTORE ADD PUSH2 0x10A8 JUMP JUMPDEST PUSH1 0x40 MLOAD DUP5 DUP2 ADD SWAP1 DUP3 DUP3 MSTORE DUP6 DUP2 MSTORE PUSH2 0x10F6 DUP2 PUSH2 0x285A JUMP JUMPDEST MLOAD SWAP1 KECCAK256 PUSH1 0x0 DUP2 DUP2 MSTORE PUSH1 0x2 DUP7 MSTORE PUSH1 0x40 SWAP1 KECCAK256 PUSH1 0x1 DUP2 ADD SLOAD PUSH1 0x1 PUSH1 0x1 PUSH1 0xA0 SHL SUB AND ISZERO ISZERO SWAP1 DUP9 SWAP1 DUP3 PUSH2 0x114E JUMPI JUMPDEST POP POP PUSH2 0x112F JUMPI JUMPDEST POP PUSH1 0x1 ADD PUSH2 0x1092 JUMP JUMPDEST DUP8 PUSH2 0x1147 SWAP2 PUSH2 0x1141 PUSH1 0x1 SWAP5 SWAP11 DUP13 PUSH2 0x2CF5 JUMP JUMPDEST MSTORE PUSH2 0x2B7E JUMP JUMPDEST SWAP7 SWAP1 PUSH2 0x1126 JUMP JUMPDEST PUSH1 0x11 ADD SLOAD PUSH1 0xFF AND SWAP2 POP PUSH2 0xF9A JUMPI DUP5 DUP2 LT ISZERO PUSH2 0xF9A JUMPI DUP4 EQ DUP8 DUP12 PUSH2 0x111F JUMP JUMPDEST CALLVALUE PUSH2 0x2AA JUMPI PUSH1 0x40 CALLDATASIZE PUSH1 0x3 NOT ADD SLT PUSH2 0x2AA JUMPI PUSH2 0x1185 PUSH2 0x28EC JUMP JUMPDEST PUSH1 0x1 PUSH1 0x1 PUSH1 0xA0 SHL SUB AND PUSH1 0x0 SWAP1 DUP2 MSTORE PUSH1 0x3 PUSH1 0x20 MSTORE PUSH1 0x40 SWAP1 KECCAK256 DUP1 SLOAD PUSH1 0x24 CALLDATALOAD SWAP2 SWAP1 DUP3 LT ISZERO PUSH2 0x2AA JUMPI PUSH1 0x20 SWAP2 PUSH2 0x11B6 SWAP2 PUSH2 0x2993 JUMP JUMPDEST SWAP1 SLOAD SWAP1 PUSH1 0x3 SHL SHR PUSH1 0x40 MLOAD SWAP1 DUP2 MSTORE RETURN JUMPDEST CALLVALUE PUSH2 0x2AA JUMPI PUSH1 0x0 CALLDATASIZE PUSH1 0x3 NOT ADD SLT PUSH2 0x2AA JUMPI PUSH2 0x11DE PUSH2 0x2D8F JUMP JUMPDEST PUSH2 0x11E6 PUSH2 0x2DE1 JUMP JUMPDEST PUSH1 0x1 PUSH1 0xFF NOT DUP2 SLOAD AND OR PUSH1 0x1 SSTORE PUSH32 0x62E78CEA01BEE320CD4E420270B5EA74000D11B0C9F74754EBDBFC544B05A258 PUSH1 0x20 PUSH1 0x40 MLOAD CALLER DUP2 MSTORE LOG1 STOP JUMPDEST CALLVALUE PUSH2 0x2AA JUMPI PUSH1 0x20 DUP1 PUSH1 0x3 NOT CALLDATASIZE ADD SLT PUSH2 0x2AA JUMPI PUSH1 0x4 CALLDATALOAD PUSH1 0x0 DUP2 DUP2 MSTORE PUSH1 0x2 DUP4 MSTORE PUSH1 0x40 SWAP1 KECCAK256 PUSH1 0x1 ADD SLOAD PUSH1 0x1 PUSH1 0x1 PUSH1 0xA0 SHL SUB SWAP3 SWAP1 PUSH2 0x125B SWAP1 DUP5 AND ISZERO ISZERO PUSH2 0x2C6B JUMP JUMPDEST DUP2 PUSH1 0x0 MSTORE PUSH1 0x2 DUP2 MSTORE DUP3 PUSH1 0x1 PUSH1 0x40 PUSH1 0x0 KECCAK256 ADD SLOAD AND CALLER SUB PUSH2 0x13B9 JUMPI PUSH2 0x127C PUSH2 0x2DBE JUMP JUMPDEST DUP2 PUSH1 0x0 MSTORE PUSH1 0x2 DUP2 MSTORE PUSH1 0x40 PUSH1 0x0 KECCAK256 PUSH1 0x11 DUP2 ADD SWAP1 DUP2 SLOAD SWAP5 PUSH1 0xFF DUP7 AND PUSH1 0x5 DUP2 LT ISZERO PUSH2 0xF9A JUMPI PUSH2 0x136A JUMPI PUSH2 0x12B5 PUSH1 0x3 DUP4 ADD SLOAD PUSH1 0xF DUP5 ADD SLOAD SWAP1 PUSH2 0x2B71 JUMP JUMPDEST SWAP6 DUP7 ISZERO SWAP3 DUP4 ISZERO PUSH2 0x12C6 JUMPI PUSH1 0x1 PUSH1 0x0 SSTORE STOP JUMPDEST DUP8 SWAP5 PUSH1 0x2 DUP1 SWAP4 PUSH1 0xFF NOT AND OR SWAP1 SSTORE ADD SLOAD AND DUP1 ISZERO PUSH1 0x0 EQ PUSH2 0x1358 JUMPI POP PUSH1 0x0 SWAP1 PUSH2 0x134F JUMPI JUMPDEST PUSH1 0x0 DUP1 DUP1 SWAP4 DUP2 SWAP4 CALLER SWAP1 CALL ISZERO PUSH2 0x1004 JUMPI JUMPDEST CALLER PUSH1 0x0 MSTORE PUSH1 0x7 DUP2 MSTORE PUSH1 0x40 PUSH1 0x0 KECCAK256 PUSH2 0x130F DUP2 SLOAD PUSH2 0x2CB6 JUMP JUMPDEST SWAP1 SSTORE PUSH1 0x40 MLOAD SWAP3 DUP4 MSTORE TIMESTAMP SWAP1 DUP4 ADD MSTORE PUSH32 0xE5511ACCE6FBDF775B76E2921D9F62D7F15BE4FD9D14A6DEB11CCA46A5883F6E PUSH1 0x40 CALLER SWAP4 LOG3 DUP1 DUP1 DUP1 DUP1 DUP1 DUP1 DUP1 DUP1 PUSH2 0x8CE JUMP JUMPDEST POP PUSH2 0x8FC PUSH2 0x12E8 JUMP JUMPDEST PUSH2 0x1365 SWAP3 SWAP2 POP CALLER SWAP1 PUSH2 0x2DFF JUMP JUMPDEST PUSH2 0x12F8 JUMP JUMPDEST PUSH1 0x40 MLOAD PUSH3 0x461BCD PUSH1 0xE5 SHL DUP2 MSTORE PUSH1 0x4 DUP2 ADD DUP6 SWAP1 MSTORE PUSH1 0x21 PUSH1 0x24 DUP3 ADD MSTORE PUSH32 0x466C6F77467573696F6E3A204F72646572206E6F742063616E63656C6C61626C PUSH1 0x44 DUP3 ADD MSTORE PUSH1 0x65 PUSH1 0xF8 SHL PUSH1 0x64 DUP3 ADD MSTORE PUSH1 0x84 SWAP1 REVERT JUMPDEST PUSH1 0x64 SWAP1 PUSH1 0x40 MLOAD SWAP1 PUSH3 0x461BCD PUSH1 0xE5 SHL DUP3 MSTORE PUSH1 0x4 DUP3 ADD MSTORE PUSH1 0x1B PUSH1 0x24 DUP3 ADD MSTORE PUSH32 0x466C6F77467573696F6E3A204E6F74206F72646572206F776E65720000000000 PUSH1 0x44 DUP3 ADD MSTORE REVERT JUMPDEST CALLVALUE PUSH2 0x2AA JUMPI PUSH1 0x0 CALLDATASIZE PUSH1 0x3 NOT ADD SLT PUSH2 0x2AA JUMPI PUSH2 0x1416 PUSH2 0x2D8F JUMP JUMPDEST PUSH1 0x1 DUP1 SLOAD PUSH2 0x100 PUSH1 0x1 PUSH1 0xA8 SHL SUB NOT DUP2 AND SWAP1 SWAP2 SSTORE PUSH1 0x0 SWAP1 PUSH1 0x8 SHR PUSH1 0x1 PUSH1 0x1 PUSH1 0xA0 SHL SUB AND PUSH32 0x8BE0079C531659141344CD1FD0A4F28419497F9722A3DAAFE3B4186F6B6457E0 DUP3 DUP1 LOG3 STOP JUMPDEST CALLVALUE PUSH2 0x2AA JUMPI PUSH1 0x20 CALLDATASIZE PUSH1 0x3 NOT ADD SLT PUSH2 0x2AA JUMPI PUSH1 0x4 CALLDATALOAD PUSH1 0x1 PUSH1 0x1 PUSH1 0x40 SHL SUB DUP2 GT PUSH2 0x2AA JUMPI PUSH1 0xFF PUSH2 0x1496 PUSH1 0x20 PUSH2 0x3E0 DUP2 SWAP5 CALLDATASIZE SWAP1 PUSH1 0x4 ADD PUSH2 0x2896 JUMP JUMPDEST DUP2 ADD PUSH1 0x5 DUP2 MSTORE SUB ADD SWAP1 KECCAK256 SLOAD AND PUSH1 0x40 MLOAD SWAP1 ISZERO ISZERO DUP2 MSTORE RETURN JUMPDEST CALLVALUE PUSH2 0x2AA JUMPI PUSH1 0x20 CALLDATASIZE PUSH1 0x3 NOT ADD SLT PUSH2 0x2AA JUMPI PUSH1 0x1 PUSH1 0x1 PUSH1 0xA0 SHL SUB PUSH2 0x14CD PUSH2 0x28EC JUMP JUMPDEST AND PUSH1 0x0 MSTORE PUSH1 0x6 PUSH1 0x20 MSTORE PUSH1 0x20 PUSH1 0xFF PUSH1 0x40 PUSH1 0x0 KECCAK256 SLOAD AND PUSH1 0x40 MLOAD SWAP1 ISZERO ISZERO DUP2 MSTORE RETURN JUMPDEST CALLVALUE PUSH2 0x2AA JUMPI PUSH1 0x20 DUP1 PUSH1 0x3 NOT CALLDATASIZE ADD SLT PUSH2 0x2AA JUMPI PUSH1 0x1 PUSH1 0x1 PUSH1 0xA0 SHL SUB PUSH2 0x150D PUSH2 0x28EC JUMP JUMPDEST AND PUSH1 0x0 MSTORE PUSH1 0x3 PUSH1 0x20 MSTORE PUSH1 0x40 PUSH1 0x0 KECCAK256 SWAP1 PUSH1 0x40 MLOAD SWAP1 DUP2 PUSH1 0x20 DUP5 SLOAD SWAP2 DUP3 DUP2 MSTORE ADD SWAP4 PUSH1 0x0 MSTORE PUSH1 0x20 PUSH1 0x0 KECCAK256 SWAP2 PUSH1 0x0 SWAP1 JUMPDEST DUP3 DUP3 LT PUSH2 0x155B JUMPI PUSH2 0x10BD DUP6 PUSH2 0x154F DUP2 DUP10 SUB DUP3 PUSH2 0x2875 JUMP JUMPDEST PUSH1 0x40 MLOAD SWAP2 DUP3 SWAP2 DUP3 PUSH2 0x2957 JUMP JUMPDEST DUP4 SLOAD DUP7 MSTORE SWAP5 DUP6 ADD SWAP5 PUSH1 0x1 SWAP4 DUP5 ADD SWAP4 SWAP1 SWAP2 ADD SWAP1 PUSH2 0x1538 JUMP JUMPDEST CALLVALUE PUSH2 0x2AA JUMPI PUSH1 0x20 CALLDATASIZE PUSH1 0x3 NOT ADD SLT PUSH2 0x2AA JUMPI PUSH1 0x4 CALLDATALOAD PUSH2 0x158E PUSH2 0x2D8F JUMP JUMPDEST PUSH1 0x64 DUP2 GT PUSH2 0x159B JUMPI PUSH1 0xC SSTORE STOP JUMPDEST PUSH1 0x40 MLOAD PUSH3 0x461BCD PUSH1 0xE5 SHL DUP2 MSTORE PUSH1 0x20 PUSH1 0x4 DUP3 ADD MSTORE PUSH1 0x1D PUSH1 0x24 DUP3 ADD MSTORE PUSH32 0x466C6F77467573696F6E3A20466565207261746520746F6F2068696768000000 PUSH1 0x44 DUP3 ADD MSTORE PUSH1 0x64 SWAP1 REVERT JUMPDEST CALLVALUE PUSH2 0x2AA JUMPI PUSH1 0x20 CALLDATASIZE PUSH1 0x3 NOT ADD SLT PUSH2 0x2AA JUMPI PUSH2 0x15F9 PUSH2 0x28EC JUMP JUMPDEST PUSH2 0x1601 PUSH2 0x2D8F JUMP JUMPDEST PUSH1 0x1 PUSH1 0x1 PUSH1 0xA0 SHL SUB AND PUSH1 0x0 SWAP1 DUP2 MSTORE PUSH1 0x6 PUSH1 0x20 MSTORE PUSH1 0x40 SWAP1 KECCAK256 DUP1 SLOAD PUSH1 0xFF NOT AND SWAP1 SSTORE STOP JUMPDEST CALLVALUE PUSH2 0x2AA JUMPI PUSH1 0x0 CALLDATASIZE PUSH1 0x3 NOT ADD SLT PUSH2 0x2AA JUMPI PUSH1 0x20 PUSH1 0xA SLOAD PUSH1 0x40 MLOAD SWAP1 DUP2 MSTORE RETURN JUMPDEST CALLVALUE PUSH2 0x2AA JUMPI PUSH1 0x0 CALLDATASIZE PUSH1 0x3 NOT ADD SLT PUSH2 0x2AA JUMPI PUSH1 0x20 PUSH1 0xD SLOAD PUSH1 0x40 MLOAD SWAP1 DUP2 MSTORE RETURN JUMPDEST CALLVALUE PUSH2 0x2AA JUMPI PUSH1 0x0 CALLDATASIZE PUSH1 0x3 NOT ADD SLT PUSH2 0x2AA JUMPI PUSH1 0x20 PUSH1 0xFF PUSH1 0x1 SLOAD AND PUSH1 0x40 MLOAD SWAP1 ISZERO ISZERO DUP2 MSTORE RETURN JUMPDEST CALLVALUE PUSH2 0x2AA JUMPI PUSH1 0x0 CALLDATASIZE PUSH1 0x3 NOT ADD SLT PUSH2 0x2AA JUMPI PUSH1 0x20 PUSH1 0xC SLOAD PUSH1 0x40 MLOAD SWAP1 DUP2 MSTORE RETURN JUMPDEST CALLVALUE PUSH2 0x2AA JUMPI PUSH1 0x20 DUP1 PUSH1 0x3 NOT CALLDATASIZE ADD SLT PUSH2 0x2AA JUMPI PUSH1 0x40 MLOAD SWAP1 PUSH2 0x16BE DUP3 PUSH2 0x283E JUMP JUMPDEST PUSH1 0x0 DUP3 MSTORE PUSH1 0x0 DUP2 DUP4 ADD MSTORE PUSH1 0x0 PUSH1 0x40 DUP4 ADD MSTORE PUSH1 0x60 SWAP2 PUSH1 0x0 DUP4 DUP3 ADD MSTORE DUP3 PUSH1 0x80 DUP3 ADD MSTORE DUP3 PUSH1 0xA0 DUP3 ADD MSTORE DUP3 PUSH1 0xC0 DUP3 ADD MSTORE PUSH1 0x40 MLOAD PUSH2 0x16F6 DUP2 PUSH2 0x2823 JUMP JUMPDEST PUSH1 0x0 DUP2 MSTORE PUSH1 0x0 DUP4 DUP3 ADD MSTORE PUSH1 0x0 PUSH1 0x40 DUP3 ADD MSTORE PUSH1 0x0 DUP5 DUP3 ADD MSTORE PUSH1 0x0 PUSH1 0x80 DUP3 ADD MSTORE PUSH1 0xE0 DUP3 ADD MSTORE PUSH2 0x100 SWAP1 PUSH1 0x0 DUP3 DUP3 ADD MSTORE PUSH2 0x120 SWAP1 PUSH1 0x0 DUP3 DUP3 ADD MSTORE PUSH2 0x140 PUSH1 0x0 DUP2 DUP4 ADD MSTORE PUSH2 0x1870 PUSH2 0x160 PUSH1 0x0 DUP2 DUP6 ADD MSTORE PUSH2 0x180 PUSH1 0x0 DUP2 DUP7 ADD MSTORE PUSH2 0x1A0 SWAP2 PUSH1 0x0 DUP4 DUP8 ADD MSTORE PUSH1 0x0 PUSH2 0x1C0 DUP1 SWAP8 ADD MSTORE PUSH1 0x4 CALLDATALOAD PUSH1 0x0 MSTORE PUSH1 0x2 DUP10 MSTORE PUSH2 0x1775 PUSH1 0x40 PUSH1 0x0 KECCAK256 PUSH2 0x2B8D JUMP JUMPDEST SWAP5 PUSH1 0x40 MLOAD SWAP11 DUP11 DUP13 SWAP12 DUP13 MSTORE DUP8 MLOAD DUP2 DUP14 ADD MSTORE DUP8 ADD MLOAD PUSH1 0x1 DUP1 PUSH1 0xA0 SHL SUB DUP1 SWAP2 AND PUSH1 0x40 DUP14 ADD MSTORE PUSH1 0x40 DUP9 ADD MLOAD AND DUP2 DUP13 ADD MSTORE DUP7 ADD MLOAD PUSH1 0x80 DUP12 ADD MSTORE PUSH1 0x80 DUP7 ADD MLOAD SWAP8 PUSH2 0x17FC DUP12 PUSH2 0x17E6 PUSH2 0x17CE PUSH2 0x260 SWAP13 DUP14 PUSH1 0xA0 DUP6 ADD MSTORE PUSH2 0x280 DUP5 ADD SWAP1 PUSH2 0x2925 JUMP JUMPDEST PUSH1 0xA0 DUP12 ADD MLOAD PUSH1 0x1F NOT SWAP4 PUSH1 0xC0 DUP6 DUP3 DUP6 SUB ADD SWAP2 ADD MSTORE PUSH2 0x2925 JUMP JUMPDEST SWAP1 DUP14 PUSH1 0xE0 PUSH1 0xC0 DUP13 ADD MLOAD SWAP3 DUP3 DUP6 SUB ADD SWAP2 ADD MSTORE PUSH2 0x2925 JUMP JUMPDEST SWAP10 PUSH2 0x1839 DUP13 DUP3 PUSH1 0xE0 DUP12 ADD MLOAD SWAP2 ADD SWAP1 PUSH1 0x80 DUP1 SWAP2 DUP1 MLOAD DUP5 MSTORE PUSH1 0x20 DUP2 ADD MLOAD PUSH1 0x20 DUP6 ADD MSTORE PUSH1 0x40 DUP2 ADD MLOAD PUSH1 0x40 DUP6 ADD MSTORE PUSH1 0x60 DUP2 ADD MLOAD PUSH1 0x60 DUP6 ADD MSTORE ADD MLOAD ISZERO ISZERO SWAP2 ADD MSTORE JUMP JUMPDEST DUP8 ADD MLOAD DUP6 DUP13 ADD MSTORE DUP7 ADD MLOAD DUP8 DUP12 ADD MSTORE DUP6 ADD MLOAD PUSH2 0x1E0 DUP11 ADD MSTORE DUP5 ADD MLOAD PUSH2 0x200 DUP10 ADD MSTORE DUP4 ADD MLOAD PUSH2 0x220 DUP9 ADD MSTORE DUP3 ADD MLOAD PUSH2 0x240 DUP8 ADD SWAP1 PUSH2 0x294A JUMP JUMPDEST ADD MLOAD SWAP1 DUP4 ADD MSTORE SUB SWAP1 RETURN JUMPDEST PUSH2 0x180 CALLDATASIZE PUSH1 0x3 NOT ADD SLT PUSH2 0x2AA JUMPI PUSH2 0x188F PUSH2 0x28EC JUMP JUMPDEST PUSH1 0x44 CALLDATALOAD PUSH1 0x1 PUSH1 0x1 PUSH1 0x40 SHL SUB DUP2 GT PUSH2 0x2AA JUMPI PUSH2 0x18AE SWAP1 CALLDATASIZE SWAP1 PUSH1 0x4 ADD PUSH2 0x2896 JUMP JUMPDEST SWAP1 PUSH1 0x64 CALLDATALOAD PUSH1 0x1 PUSH1 0x1 PUSH1 0x40 SHL SUB DUP2 GT PUSH2 0x2AA JUMPI PUSH2 0x18CE SWAP1 CALLDATASIZE SWAP1 PUSH1 0x4 ADD PUSH2 0x2896 JUMP JUMPDEST SWAP1 PUSH1 0x84 CALLDATALOAD PUSH1 0x1 PUSH1 0x1 PUSH1 0x40 SHL SUB DUP2 GT PUSH2 0x2AA JUMPI PUSH2 0x18EE SWAP1 CALLDATASIZE SWAP1 PUSH1 0x4 ADD PUSH2 0x2896 JUMP JUMPDEST SWAP1 PUSH1 0xA0 CALLDATASIZE PUSH1 0xA3 NOT ADD SLT PUSH2 0x2AA JUMPI PUSH1 0x40 MLOAD SWAP1 PUSH2 0x1908 DUP3 PUSH2 0x2823 JUMP JUMPDEST PUSH1 0xA4 CALLDATALOAD DUP3 MSTORE PUSH1 0xC4 CALLDATALOAD PUSH1 0x20 DUP4 ADD MSTORE PUSH1 0xE4 CALLDATALOAD PUSH1 0x40 DUP4 ADD MSTORE PUSH2 0x104 CALLDATALOAD PUSH1 0x60 DUP4 ADD MSTORE PUSH2 0x124 CALLDATALOAD DUP1 ISZERO ISZERO DUP2 SUB PUSH2 0x2AA JUMPI PUSH1 0x80 DUP4 ADD MSTORE PUSH2 0x1940 PUSH2 0x2DBE JUMP JUMPDEST PUSH2 0x1948 PUSH2 0x2DE1 JUMP JUMPDEST PUSH2 0x3E8 PUSH1 0x24 CALLDATALOAD LT PUSH2 0x25D1 JUMPI PUSH1 0xFF PUSH1 0x40 MLOAD PUSH1 0x20 DUP2 DUP9 MLOAD PUSH2 0x196A DUP2 DUP4 DUP6 DUP14 ADD PUSH2 0x2902 JUMP JUMPDEST DUP2 ADD PUSH1 0x5 DUP2 MSTORE SUB ADD SWAP1 KECCAK256 SLOAD AND ISZERO PUSH2 0x2580 JUMPI DUP4 MLOAD ISZERO PUSH2 0x253C JUMPI DUP3 MLOAD ISZERO PUSH2 0x24F7 JUMPI PUSH2 0x144 CALLDATALOAD ISZERO PUSH2 0x24B2 JUMPI PUSH1 0x64 NUMBER ADD NUMBER GT PUSH2 0x249C JUMPI PUSH1 0x64 NUMBER ADD PUSH2 0x164 CALLDATALOAD GT ISZERO PUSH2 0x2457 JUMPI CALLER PUSH1 0x0 MSTORE PUSH1 0x7 PUSH1 0x20 MSTORE PUSH1 0x40 PUSH1 0x0 KECCAK256 SLOAD PUSH1 0xD SLOAD GT ISZERO PUSH2 0x2412 JUMPI PUSH1 0x5 DUP3 MLOAD LT PUSH2 0x23CD JUMPI PUSH2 0x5A0 DUP3 MLOAD GT PUSH2 0x2388 JUMPI PUSH1 0x1 PUSH1 0x20 DUP4 ADD MLOAD GT ISZERO PUSH2 0x2337 JUMPI PUSH1 0x14 PUSH1 0x20 DUP4 ADD MLOAD GT PUSH2 0x22F2 JUMPI PUSH2 0x1A00 PUSH2 0x3E8 PUSH1 0x40 DUP5 ADD MLOAD GT ISZERO PUSH2 0x2D09 JUMP JUMPDEST PUSH1 0x60 DUP3 ADD MLOAD ISZERO PUSH2 0x22A3 JUMPI PUSH2 0x2710 PUSH2 0x1A1B PUSH1 0xC SLOAD PUSH1 0x24 CALLDATALOAD PUSH2 0x2B3E JUMP JUMPDEST DIV SWAP4 PUSH2 0x1A29 DUP6 PUSH1 0x24 CALLDATALOAD PUSH2 0x2B71 JUMP JUMPDEST SWAP4 PUSH1 0x8 SLOAD PUSH2 0x1A36 DUP2 PUSH2 0x2B7E JUMP JUMPDEST PUSH1 0x8 SSTORE PUSH2 0x1A98 PUSH1 0xA8 PUSH1 0x40 MLOAD DUP1 SWAP4 CALLER PUSH1 0x60 SHL PUSH1 0x20 DUP4 ADD MSTORE PUSH1 0x1 PUSH1 0x1 PUSH1 0x60 SHL SUB NOT DUP9 PUSH1 0x60 SHL AND PUSH1 0x34 DUP4 ADD MSTORE PUSH1 0x24 CALLDATALOAD PUSH1 0x48 DUP4 ADD MSTORE DUP12 PUSH2 0x1A7C DUP2 MLOAD DUP1 SWAP3 PUSH1 0x20 PUSH1 0x68 DUP8 ADD SWAP2 ADD PUSH2 0x2902 JUMP JUMPDEST DUP3 ADD SWAP1 TIMESTAMP PUSH1 0x68 DUP4 ADD MSTORE PUSH1 0x88 DUP3 ADD MSTORE SUB PUSH1 0x88 DUP2 ADD DUP5 MSTORE ADD DUP3 PUSH2 0x2875 JUMP JUMPDEST DUP1 MLOAD PUSH1 0x20 SWAP1 SWAP2 ADD KECCAK256 SWAP6 DUP7 PUSH1 0x1 PUSH1 0x1 PUSH1 0xA0 SHL SUB DUP6 AND PUSH2 0x21F0 JUMPI POP PUSH1 0x24 CALLDATALOAD CALLVALUE SUB PUSH2 0x21AB JUMPI DUP1 PUSH2 0x213D JUMPI JUMPDEST POP JUMPDEST PUSH1 0x40 MLOAD SWAP1 PUSH2 0x1ACF DUP3 PUSH2 0x283E JUMP JUMPDEST DUP7 DUP3 MSTORE CALLER PUSH1 0x20 DUP4 ADD MSTORE PUSH1 0x1 DUP1 PUSH1 0xA0 SHL SUB DUP5 AND PUSH1 0x40 DUP4 ADD MSTORE DUP6 PUSH1 0x60 DUP4 ADD MSTORE DUP8 PUSH1 0x80 DUP4 ADD MSTORE DUP3 PUSH1 0xA0 DUP4 ADD MSTORE PUSH1 0xC0 DUP3 ADD MSTORE DUP4 PUSH1 0xE0 DUP3 ADD MSTORE PUSH2 0x144 CALLDATALOAD PUSH2 0x100 DUP3 ADD MSTORE PUSH2 0x164 CALLDATALOAD PUSH2 0x120 DUP3 ADD MSTORE TIMESTAMP PUSH2 0x140 DUP3 ADD MSTORE PUSH1 0x0 PUSH2 0x160 DUP3 ADD MSTORE PUSH1 0x0 PUSH2 0x180 DUP3 ADD MSTORE PUSH1 0x0 PUSH2 0x1A0 DUP3 ADD MSTORE PUSH1 0x0 PUSH2 0x1C0 DUP3 ADD MSTORE DUP6 PUSH1 0x0 MSTORE PUSH1 0x2 PUSH1 0x20 MSTORE PUSH1 0x40 PUSH1 0x0 KECCAK256 SWAP1 DUP1 MLOAD DUP3 SSTORE PUSH1 0x1 DUP3 ADD PUSH1 0x1 DUP1 PUSH1 0xA0 SHL SUB PUSH1 0x20 DUP4 ADD MLOAD AND SWAP1 PUSH1 0x1 PUSH1 0x1 PUSH1 0x60 SHL SUB PUSH1 0xA0 SHL SWAP2 DUP3 DUP3 SLOAD AND OR SWAP1 SSTORE PUSH1 0x2 DUP4 ADD SWAP1 PUSH1 0x1 DUP1 PUSH1 0xA0 SHL SUB PUSH1 0x40 DUP5 ADD MLOAD AND SWAP1 DUP3 SLOAD AND OR SWAP1 SSTORE PUSH1 0x60 DUP2 ADD MLOAD PUSH1 0x3 DUP4 ADD SSTORE PUSH1 0x80 DUP2 ADD MLOAD DUP1 MLOAD SWAP1 PUSH1 0x1 PUSH1 0x1 PUSH1 0x40 SHL SUB DUP3 GT PUSH2 0x1EB7 JUMPI DUP2 SWAP1 PUSH2 0x1BBE PUSH1 0x4 DUP7 ADD SLOAD PUSH2 0x29C1 JUMP JUMPDEST PUSH1 0x1F DUP2 GT PUSH2 0x20EA JUMPI JUMPDEST POP PUSH1 0x20 SWAP1 PUSH1 0x1F DUP4 GT PUSH1 0x1 EQ PUSH2 0x2078 JUMPI PUSH1 0x0 SWAP3 PUSH2 0x206D JUMPI JUMPDEST POP POP DUP2 PUSH1 0x1 SHL SWAP2 PUSH1 0x0 NOT SWAP1 PUSH1 0x3 SHL SHR NOT AND OR PUSH1 0x4 DUP4 ADD SSTORE JUMPDEST PUSH1 0xA0 DUP2 ADD MLOAD DUP1 MLOAD SWAP1 PUSH1 0x1 PUSH1 0x1 PUSH1 0x40 SHL SUB DUP3 GT PUSH2 0x1EB7 JUMPI DUP2 SWAP1 PUSH2 0x1C1B PUSH1 0x5 DUP7 ADD SLOAD PUSH2 0x29C1 JUMP JUMPDEST PUSH1 0x1F DUP2 GT PUSH2 0x201A JUMPI JUMPDEST POP PUSH1 0x20 SWAP1 PUSH1 0x1F DUP4 GT PUSH1 0x1 EQ PUSH2 0x1FA8 JUMPI PUSH1 0x0 SWAP3 PUSH2 0x1F9D JUMPI JUMPDEST POP POP DUP2 PUSH1 0x1 SHL SWAP2 PUSH1 0x0 NOT SWAP1 PUSH1 0x3 SHL SHR NOT AND OR PUSH1 0x5 DUP4 ADD SSTORE JUMPDEST PUSH1 0xC0 DUP2 ADD MLOAD DUP1 MLOAD SWAP1 PUSH1 0x1 PUSH1 0x1 PUSH1 0x40 SHL SUB DUP3 GT PUSH2 0x1EB7 JUMPI DUP2 SWAP1 PUSH2 0x1C78 PUSH1 0x6 DUP7 ADD SLOAD PUSH2 0x29C1 JUMP JUMPDEST PUSH1 0x1F DUP2 GT PUSH2 0x1F4A JUMPI JUMPDEST POP PUSH1 0x20 SWAP1 PUSH1 0x1F DUP4 GT PUSH1 0x1 EQ PUSH2 0x1ED8 JUMPI PUSH1 0x0 SWAP3 PUSH2 0x1ECD JUMPI JUMPDEST POP POP DUP2 PUSH1 0x1 SHL SWAP2 PUSH1 0x0 NOT SWAP1 PUSH1 0x3 SHL SHR NOT AND OR PUSH1 0x6 DUP4 ADD SSTORE JUMPDEST PUSH1 0xE0 DUP2 ADD MLOAD DUP1 MLOAD PUSH1 0x7 DUP5 ADD SSTORE PUSH1 0x20 DUP2 ADD MLOAD PUSH1 0x8 DUP5 ADD SSTORE PUSH1 0x40 DUP2 ADD MLOAD PUSH1 0x9 DUP5 ADD SSTORE PUSH1 0x60 DUP2 ADD MLOAD PUSH1 0xA DUP5 ADD SSTORE PUSH1 0x80 PUSH1 0xB DUP5 ADD SWAP2 ADD MLOAD ISZERO ISZERO PUSH1 0xFF DUP1 NOT DUP4 SLOAD AND SWAP2 AND OR SWAP1 SSTORE PUSH2 0x100 DUP2 ADD MLOAD PUSH1 0xC DUP4 ADD SSTORE PUSH2 0x120 DUP2 ADD MLOAD PUSH1 0xD DUP4 ADD SSTORE PUSH2 0x140 DUP2 ADD MLOAD PUSH1 0xE DUP4 ADD SSTORE PUSH2 0x160 DUP2 ADD MLOAD PUSH1 0xF DUP4 ADD SSTORE PUSH2 0x180 DUP2 ADD MLOAD PUSH1 0x10 DUP4 ADD SSTORE PUSH2 0x1A0 DUP2 ADD MLOAD PUSH1 0x5 DUP2 LT ISZERO PUSH2 0xF9A JUMPI PUSH1 0x12 SWAP2 PUSH2 0x1C0 SWAP2 PUSH1 0xFF DUP1 NOT PUSH1 0x11 DUP8 ADD SLOAD AND SWAP2 AND OR PUSH1 0x11 DUP6 ADD SSTORE ADD MLOAD SWAP2 ADD SSTORE CALLER PUSH1 0x0 MSTORE PUSH1 0x3 PUSH1 0x20 MSTORE PUSH1 0x40 PUSH1 0x0 KECCAK256 SWAP6 DUP7 SLOAD SWAP7 PUSH1 0x1 PUSH1 0x40 SHL DUP9 LT ISZERO PUSH2 0x1EB7 JUMPI PUSH2 0x1E37 DUP8 SWAP5 PUSH32 0xDF9B2EE7E19A4BED367D9C7CBAE54540A83B4E8A242569D2BAB04741CBB0F442 SWAP5 PUSH2 0x1DAF DUP12 PUSH2 0x1E6C SWAP6 PUSH1 0x1 PUSH1 0x20 SWAP15 ADD DUP2 SSTORE PUSH2 0x2993 JUMP JUMPDEST DUP2 SLOAD SWAP1 PUSH1 0x3 SHL SWAP1 DUP10 DUP3 SHL SWAP2 PUSH1 0x0 NOT SWAP1 SHL NOT AND OR SWAP1 SSTORE CALLER PUSH1 0x0 MSTORE PUSH1 0x7 DUP12 MSTORE PUSH1 0x40 PUSH1 0x0 KECCAK256 PUSH2 0x1DDB DUP2 SLOAD PUSH2 0x2B7E JUMP JUMPDEST SWAP1 SSTORE PUSH2 0x1DE8 PUSH1 0x9 SLOAD PUSH2 0x2B7E JUMP JUMPDEST PUSH1 0x9 SSTORE PUSH2 0x1DF9 PUSH1 0x24 CALLDATALOAD PUSH1 0xA SLOAD PUSH2 0x2B31 JUMP JUMPDEST PUSH1 0xA SSTORE PUSH2 0x1E13 PUSH1 0x40 MLOAD SWAP6 PUSH2 0x120 DUP8 MSTORE PUSH2 0x120 DUP8 ADD SWAP1 PUSH2 0x2925 JUMP JUMPDEST PUSH1 0x1 PUSH1 0x1 PUSH1 0xA0 SHL SUB SWAP1 SWAP3 AND DUP6 DUP13 ADD MSTORE PUSH1 0x24 CALLDATALOAD PUSH1 0x40 DUP7 ADD MSTORE DUP5 DUP3 SUB PUSH1 0x60 DUP7 ADD MSTORE PUSH2 0x2925 JUMP JUMPDEST SWAP5 PUSH1 0x80 DUP4 ADD SWAP1 PUSH1 0x80 DUP1 SWAP2 DUP1 MLOAD DUP5 MSTORE PUSH1 0x20 DUP2 ADD MLOAD PUSH1 0x20 DUP6 ADD MSTORE PUSH1 0x40 DUP2 ADD MLOAD PUSH1 0x40 DUP6 ADD MSTORE PUSH1 0x60 DUP2 ADD MLOAD PUSH1 0x60 DUP6 ADD MSTORE ADD MLOAD ISZERO ISZERO SWAP2 ADD MSTORE JUMP JUMPDEST DUP1 CALLER SWAP5 SUB SWAP1 LOG3 PUSH1 0x40 MLOAD SWAP1 DUP2 MSTORE PUSH2 0x164 CALLDATALOAD DUP4 DUP3 ADD MSTORE DUP2 PUSH32 0x1BA3FBE5FD9D0A7139D0258BB7B035B16ADB3A67CD7B5DB6BB0B545C71483146 PUSH1 0x40 PUSH2 0x144 CALLDATALOAD SWAP4 LOG3 PUSH1 0x1 PUSH1 0x0 SSTORE PUSH1 0x40 MLOAD SWAP1 DUP2 MSTORE RETURN JUMPDEST PUSH4 0x4E487B71 PUSH1 0xE0 SHL PUSH1 0x0 MSTORE PUSH1 0x41 PUSH1 0x4 MSTORE PUSH1 0x24 PUSH1 0x0 REVERT JUMPDEST ADD MLOAD SWAP1 POP DUP11 DUP1 PUSH2 0x1C98 JUMP JUMPDEST SWAP3 POP PUSH1 0x6 DUP6 ADD PUSH1 0x0 MSTORE PUSH1 0x20 PUSH1 0x0 KECCAK256 SWAP1 PUSH1 0x0 SWAP4 JUMPDEST PUSH1 0x1F NOT DUP5 AND DUP6 LT PUSH2 0x1F2F JUMPI PUSH1 0x1 SWAP5 POP DUP4 PUSH1 0x1F NOT DUP2 AND LT PUSH2 0x1F16 JUMPI JUMPDEST POP POP POP DUP2 SHL ADD PUSH1 0x6 DUP4 ADD SSTORE PUSH2 0x1CB0 JUMP JUMPDEST ADD MLOAD PUSH1 0x0 NOT PUSH1 0xF8 DUP5 PUSH1 0x3 SHL AND SHR NOT AND SWAP1 SSTORE DUP11 DUP1 DUP1 PUSH2 0x1F06 JUMP JUMPDEST DUP2 DUP2 ADD MLOAD DUP4 SSTORE PUSH1 0x20 SWAP5 DUP6 ADD SWAP5 PUSH1 0x1 SWAP1 SWAP4 ADD SWAP3 SWAP1 SWAP2 ADD SWAP1 PUSH2 0x1EEB JUMP JUMPDEST SWAP1 SWAP2 POP PUSH1 0x6 DUP6 ADD PUSH1 0x0 MSTORE PUSH1 0x20 PUSH1 0x0 KECCAK256 PUSH1 0x1F DUP5 ADD PUSH1 0x5 SHR DUP2 ADD PUSH1 0x20 DUP6 LT PUSH2 0x1F96 JUMPI JUMPDEST SWAP1 DUP5 SWAP4 SWAP3 SWAP2 JUMPDEST PUSH1 0x1F DUP4 ADD PUSH1 0x5 SHR DUP3 ADD DUP2 LT PUSH2 0x1F87 JUMPI POP POP PUSH2 0x1C81 JUMP JUMPDEST PUSH1 0x0 DUP2 SSTORE DUP6 SWAP5 POP PUSH1 0x1 ADD PUSH2 0x1F71 JUMP JUMPDEST POP DUP1 PUSH2 0x1F6B JUMP JUMPDEST ADD MLOAD SWAP1 POP DUP11 DUP1 PUSH2 0x1C3B JUMP JUMPDEST SWAP3 POP PUSH1 0x5 DUP6 ADD PUSH1 0x0 MSTORE PUSH1 0x20 PUSH1 0x0 KECCAK256 SWAP1 PUSH1 0x0 SWAP4 JUMPDEST PUSH1 0x1F NOT DUP5 AND DUP6 LT PUSH2 0x1FFF JUMPI PUSH1 0x1 SWAP5 POP DUP4 PUSH1 0x1F NOT DUP2 AND LT PUSH2 0x1FE6 JUMPI JUMPDEST POP POP POP DUP2 SHL ADD PUSH1 0x5 DUP4 ADD SSTORE PUSH2 0x1C53 JUMP JUMPDEST ADD MLOAD PUSH1 0x0 NOT PUSH1 0xF8 DUP5 PUSH1 0x3 SHL AND SHR NOT AND SWAP1 SSTORE DUP11 DUP1 DUP1 PUSH2 0x1FD6 JUMP JUMPDEST DUP2 DUP2 ADD MLOAD DUP4 SSTORE PUSH1 0x20 SWAP5 DUP6 ADD SWAP5 PUSH1 0x1 SWAP1 SWAP4 ADD SWAP3 SWAP1 SWAP2 ADD SWAP1 PUSH2 0x1FBB JUMP JUMPDEST SWAP1 SWAP2 POP PUSH1 0x5 DUP6 ADD PUSH1 0x0 MSTORE PUSH1 0x20 PUSH1 0x0 KECCAK256 PUSH1 0x1F DUP5 ADD PUSH1 0x5 SHR DUP2 ADD PUSH1 0x20 DUP6 LT PUSH2 0x2066 JUMPI JUMPDEST SWAP1 DUP5 SWAP4 SWAP3 SWAP2 JUMPDEST PUSH1 0x1F DUP4 ADD PUSH1 0x5 SHR DUP3 ADD DUP2 LT PUSH2 0x2057 JUMPI POP POP PUSH2 0x1C24 JUMP JUMPDEST PUSH1 0x0 DUP2 SSTORE DUP6 SWAP5 POP PUSH1 0x1 ADD PUSH2 0x2041 JUMP JUMPDEST POP DUP1 PUSH2 0x203B JUMP JUMPDEST ADD MLOAD SWAP1 POP DUP11 DUP1 PUSH2 0x1BDE JUMP JUMPDEST SWAP3 POP PUSH1 0x4 DUP6 ADD PUSH1 0x0 MSTORE PUSH1 0x20 PUSH1 0x0 KECCAK256 SWAP1 PUSH1 0x0 SWAP4 JUMPDEST PUSH1 0x1F NOT DUP5 AND DUP6 LT PUSH2 0x20CF JUMPI PUSH1 0x1 SWAP5 POP DUP4 PUSH1 0x1F NOT DUP2 AND LT PUSH2 0x20B6 JUMPI JUMPDEST POP POP POP DUP2 SHL ADD PUSH1 0x4 DUP4 ADD SSTORE PUSH2 0x1BF6 JUMP JUMPDEST ADD MLOAD PUSH1 0x0 NOT PUSH1 0xF8 DUP5 PUSH1 0x3 SHL AND SHR NOT AND SWAP1 SSTORE DUP11 DUP1 DUP1 PUSH2 0x20A6 JUMP JUMPDEST DUP2 DUP2 ADD MLOAD DUP4 SSTORE PUSH1 0x20 SWAP5 DUP6 ADD SWAP5 PUSH1 0x1 SWAP1 SWAP4 ADD SWAP3 SWAP1 SWAP2 ADD SWAP1 PUSH2 0x208B JUMP JUMPDEST SWAP1 SWAP2 POP PUSH1 0x4 DUP6 ADD PUSH1 0x0 MSTORE PUSH1 0x20 PUSH1 0x0 KECCAK256 PUSH1 0x1F DUP5 ADD PUSH1 0x5 SHR DUP2 ADD PUSH1 0x20 DUP6 LT PUSH2 0x2136 JUMPI JUMPDEST SWAP1 DUP5 SWAP4 SWAP3 SWAP2 JUMPDEST PUSH1 0x1F DUP4 ADD PUSH1 0x5 SHR DUP3 ADD DUP2 LT PUSH2 0x2127 JUMPI POP POP PUSH2 0x1BC7 JUMP JUMPDEST PUSH1 0x0 DUP2 SSTORE DUP6 SWAP5 POP PUSH1 0x1 ADD PUSH2 0x2111 JUMP JUMPDEST POP DUP1 PUSH2 0x210B JUMP JUMPDEST PUSH1 0x0 DUP1 DUP1 DUP1 DUP5 PUSH1 0x1 DUP1 PUSH1 0xA0 SHL SUB PUSH1 0xB SLOAD AND DUP3 DUP3 ISZERO PUSH2 0x21A2 JUMPI JUMPDEST CALL ISZERO PUSH2 0x1004 JUMPI PUSH1 0xB SLOAD PUSH1 0x40 DUP1 MLOAD SWAP3 DUP4 MSTORE PUSH1 0x1 PUSH1 0x1 PUSH1 0xA0 SHL SUB SWAP1 SWAP2 AND PUSH1 0x20 DUP4 ADD MSTORE DUP8 SWAP2 PUSH32 0xCFBA6F0D638F02D61BCA3CAD4C8B0EE671B83BE0D14085BDA2D196BE921BE929 SWAP2 SWAP1 LOG2 DUP8 PUSH2 0x1AC0 JUMP JUMPDEST POP PUSH2 0x8FC PUSH2 0x2156 JUMP JUMPDEST PUSH1 0x40 MLOAD PUSH3 0x461BCD PUSH1 0xE5 SHL DUP2 MSTORE PUSH1 0x20 PUSH1 0x4 DUP3 ADD MSTORE PUSH1 0x1F PUSH1 0x24 DUP3 ADD MSTORE PUSH32 0x466C6F77467573696F6E3A2045544820616D6F756E74206D69736D6174636800 PUSH1 0x44 DUP3 ADD MSTORE PUSH1 0x64 SWAP1 REVERT JUMPDEST SWAP1 PUSH2 0x2234 PUSH1 0x40 MLOAD PUSH4 0x23B872DD PUSH1 0xE0 SHL PUSH1 0x20 DUP3 ADD MSTORE CALLER PUSH1 0x24 DUP3 ADD MSTORE ADDRESS PUSH1 0x44 DUP3 ADD MSTORE PUSH1 0x24 CALLDATALOAD PUSH1 0x64 DUP3 ADD MSTORE PUSH1 0x64 DUP2 MSTORE PUSH2 0x2225 DUP2 PUSH2 0x2823 JUMP JUMPDEST PUSH1 0x1 PUSH1 0x1 PUSH1 0xA0 SHL SUB DUP8 AND PUSH2 0x308B JUMP JUMPDEST DUP1 PUSH2 0x2241 JUMPI JUMPDEST POP POP PUSH2 0x1AC2 JUMP JUMPDEST PUSH1 0xB SLOAD PUSH32 0xCFBA6F0D638F02D61BCA3CAD4C8B0EE671B83BE0D14085BDA2D196BE921BE929 SWAP2 SWAP1 PUSH2 0x2280 SWAP1 DUP3 SWAP1 PUSH1 0x1 PUSH1 0x1 PUSH1 0xA0 SHL SUB SWAP1 DUP2 AND SWAP1 DUP10 AND PUSH2 0x2DFF JUMP JUMPDEST PUSH1 0xB SLOAD PUSH1 0x40 DUP1 MLOAD SWAP3 DUP4 MSTORE PUSH1 0x1 PUSH1 0x1 PUSH1 0xA0 SHL SUB SWAP1 SWAP2 AND PUSH1 0x20 DUP4 ADD MSTORE SWAP1 LOG2 DUP6 DUP9 PUSH2 0x223A JUMP JUMPDEST PUSH1 0x40 MLOAD PUSH3 0x461BCD PUSH1 0xE5 SHL DUP2 MSTORE PUSH1 0x20 PUSH1 0x4 DUP3 ADD MSTORE PUSH1 0x21 PUSH1 0x24 DUP3 ADD MSTORE PUSH32 0x466C6F77467573696F6E3A20496E76616C6964206D696E2066696C6C2073697A PUSH1 0x44 DUP3 ADD MSTORE PUSH1 0x65 PUSH1 0xF8 SHL PUSH1 0x64 DUP3 ADD MSTORE PUSH1 0x84 SWAP1 REVERT JUMPDEST PUSH1 0x40 MLOAD PUSH3 0x461BCD PUSH1 0xE5 SHL DUP2 MSTORE PUSH1 0x20 PUSH1 0x4 DUP3 ADD MSTORE PUSH1 0x1E PUSH1 0x24 DUP3 ADD MSTORE PUSH32 0x466C6F77467573696F6E3A20546F6F206D616E7920696E74657276616C730000 PUSH1 0x44 DUP3 ADD MSTORE PUSH1 0x64 SWAP1 REVERT JUMPDEST PUSH1 0x40 MLOAD PUSH3 0x461BCD PUSH1 0xE5 SHL DUP2 MSTORE PUSH1 0x20 PUSH1 0x4 DUP3 ADD MSTORE PUSH1 0x23 PUSH1 0x24 DUP3 ADD MSTORE PUSH32 0x466C6F77467573696F6E3A204E656564206D756C7469706C6520696E74657276 PUSH1 0x44 DUP3 ADD MSTORE PUSH3 0x616C73 PUSH1 0xE8 SHL PUSH1 0x64 DUP3 ADD MSTORE PUSH1 0x84 SWAP1 REVERT JUMPDEST PUSH1 0x40 MLOAD PUSH3 0x461BCD PUSH1 0xE5 SHL DUP2 MSTORE PUSH1 0x20 PUSH1 0x4 DUP3 ADD MSTORE PUSH1 0x1C PUSH1 0x24 DUP3 ADD MSTORE PUSH32 0x466C6F77467573696F6E3A2057696E646F7720746F6F206C6172676500000000 PUSH1 0x44 DUP3 ADD MSTORE PUSH1 0x64 SWAP1 REVERT JUMPDEST PUSH1 0x40 MLOAD PUSH3 0x461BCD PUSH1 0xE5 SHL DUP2 MSTORE PUSH1 0x20 PUSH1 0x4 DUP3 ADD MSTORE PUSH1 0x1C PUSH1 0x24 DUP3 ADD MSTORE PUSH32 0x466C6F77467573696F6E3A2057696E646F7720746F6F20736D616C6C00000000 PUSH1 0x44 DUP3 ADD MSTORE PUSH1 0x64 SWAP1 REVERT JUMPDEST PUSH1 0x40 MLOAD PUSH3 0x461BCD PUSH1 0xE5 SHL DUP2 MSTORE PUSH1 0x20 PUSH1 0x4 DUP3 ADD MSTORE PUSH1 0x1B PUSH1 0x24 DUP3 ADD MSTORE PUSH32 0x466C6F77467573696F6E3A20546F6F206D616E79206F72646572730000000000 PUSH1 0x44 DUP3 ADD MSTORE PUSH1 0x64 SWAP1 REVERT JUMPDEST PUSH1 0x40 MLOAD PUSH3 0x461BCD PUSH1 0xE5 SHL DUP2 MSTORE PUSH1 0x20 PUSH1 0x4 DUP3 ADD MSTORE PUSH1 0x1C PUSH1 0x24 DUP3 ADD MSTORE PUSH32 0x466C6F77467573696F6E3A2054696D656F757420746F6F20736F6F6E00000000 PUSH1 0x44 DUP3 ADD MSTORE PUSH1 0x64 SWAP1 REVERT JUMPDEST PUSH4 0x4E487B71 PUSH1 0xE0 SHL PUSH1 0x0 MSTORE PUSH1 0x11 PUSH1 0x4 MSTORE PUSH1 0x24 PUSH1 0x0 REVERT JUMPDEST PUSH1 0x40 MLOAD PUSH3 0x461BCD PUSH1 0xE5 SHL DUP2 MSTORE PUSH1 0x20 PUSH1 0x4 DUP3 ADD MSTORE PUSH1 0x1D PUSH1 0x24 DUP3 ADD MSTORE PUSH32 0x466C6F77467573696F6E3A20496E76616C69642048544C432068617368000000 PUSH1 0x44 DUP3 ADD MSTORE PUSH1 0x64 SWAP1 REVERT JUMPDEST PUSH1 0x40 MLOAD PUSH3 0x461BCD PUSH1 0xE5 SHL DUP2 MSTORE PUSH1 0x20 PUSH1 0x4 DUP3 ADD MSTORE PUSH1 0x1D PUSH1 0x24 DUP3 ADD MSTORE PUSH32 0x466C6F77467573696F6E3A20496E76616C696420726563697069656E74000000 PUSH1 0x44 DUP3 ADD MSTORE PUSH1 0x64 SWAP1 REVERT JUMPDEST PUSH1 0x64 PUSH1 0x40 MLOAD PUSH3 0x461BCD PUSH1 0xE5 SHL DUP2 MSTORE PUSH1 0x20 PUSH1 0x4 DUP3 ADD MSTORE PUSH1 0x20 PUSH1 0x24 DUP3 ADD MSTORE PUSH32 0x466C6F77467573696F6E3A20496E76616C69642074617267657420746F6B656E PUSH1 0x44 DUP3 ADD MSTORE REVERT JUMPDEST PUSH1 0x40 MLOAD PUSH3 0x461BCD PUSH1 0xE5 SHL DUP2 MSTORE PUSH1 0x20 PUSH1 0x4 DUP3 ADD MSTORE PUSH1 0x24 DUP1 DUP3 ADD MSTORE PUSH32 0x466C6F77467573696F6E3A20556E737570706F72746564207461726765742063 PUSH1 0x44 DUP3 ADD MSTORE PUSH4 0x3430B4B7 PUSH1 0xE1 SHL PUSH1 0x64 DUP3 ADD MSTORE PUSH1 0x84 SWAP1 REVERT JUMPDEST PUSH1 0x40 MLOAD PUSH3 0x461BCD PUSH1 0xE5 SHL DUP2 MSTORE PUSH1 0x20 PUSH1 0x4 DUP3 ADD MSTORE PUSH1 0x1C PUSH1 0x24 DUP3 ADD MSTORE PUSH32 0x466C6F77467573696F6E3A20416D6F756E7420746F6F20736D616C6C00000000 PUSH1 0x44 DUP3 ADD MSTORE PUSH1 0x64 SWAP1 REVERT JUMPDEST CALLVALUE PUSH2 0x2AA JUMPI PUSH1 0x20 CALLDATASIZE PUSH1 0x3 NOT ADD SLT PUSH2 0x2AA JUMPI PUSH1 0x4 CALLDATALOAD PUSH1 0x1 PUSH1 0x1 PUSH1 0x40 SHL SUB DUP2 GT PUSH2 0x2AA JUMPI PUSH1 0x20 PUSH2 0x3D8 PUSH2 0x264B SWAP3 CALLDATASIZE SWAP1 PUSH1 0x4 ADD PUSH2 0x2896 JUMP JUMPDEST PUSH1 0x5 SWAP1 DUP3 ADD SWAP1 DUP2 MSTORE SUB ADD SWAP1 KECCAK256 DUP1 SLOAD PUSH1 0xFF NOT AND SWAP1 SSTORE STOP JUMPDEST CALLVALUE PUSH2 0x2AA JUMPI PUSH1 0x0 CALLDATASIZE PUSH1 0x3 NOT ADD SLT PUSH2 0x2AA JUMPI PUSH2 0x267A PUSH2 0x2D8F JUMP JUMPDEST PUSH1 0x1 SLOAD PUSH1 0xFF DUP2 AND ISZERO PUSH2 0x26B9 JUMPI PUSH1 0xFF NOT AND PUSH1 0x1 SSTORE PUSH32 0x5DB9EE0A495BF2E6FF9C91A7834C1BA4FDD244A5E8AA4E537BD38AEAE4B073AA PUSH1 0x20 PUSH1 0x40 MLOAD CALLER DUP2 MSTORE LOG1 STOP JUMPDEST PUSH1 0x40 MLOAD PUSH4 0x8DFC202B PUSH1 0xE0 SHL DUP2 MSTORE PUSH1 0x4 SWAP1 REVERT JUMPDEST CALLVALUE PUSH2 0x2AA JUMPI PUSH1 0x0 CALLDATASIZE PUSH1 0x3 NOT ADD SLT PUSH2 0x2AA JUMPI PUSH1 0x20 PUSH1 0x40 MLOAD PUSH2 0x5A0 DUP2 MSTORE RETURN JUMPDEST CALLVALUE PUSH2 0x2AA JUMPI PUSH1 0x0 CALLDATASIZE PUSH1 0x3 NOT ADD SLT PUSH2 0x2AA JUMPI PUSH1 0x20 PUSH1 0x9 SLOAD PUSH1 0x40 MLOAD SWAP1 DUP2 MSTORE RETURN JUMPDEST CALLVALUE PUSH2 0x2AA JUMPI PUSH1 0x20 DUP1 PUSH1 0x3 NOT CALLDATASIZE ADD SLT PUSH2 0x2AA JUMPI PUSH1 0x4 CALLDATALOAD PUSH1 0x0 MSTORE PUSH1 0x4 DUP2 MSTORE PUSH1 0x40 PUSH1 0x0 KECCAK256 SWAP1 DUP2 SLOAD PUSH2 0x2733 DUP2 PUSH2 0x2B1A JUMP JUMPDEST SWAP1 PUSH2 0x2741 PUSH1 0x40 MLOAD SWAP3 DUP4 PUSH2 0x2875 JUMP JUMPDEST DUP1 DUP3 MSTORE DUP3 DUP3 ADD DUP1 SWAP5 PUSH1 0x0 MSTORE DUP4 PUSH1 0x0 KECCAK256 PUSH1 0x0 SWAP2 JUMPDEST DUP4 DUP4 LT PUSH2 0x27BE JUMPI PUSH1 0x40 DUP1 MLOAD DUP8 DUP2 MSTORE DUP7 MLOAD DUP2 DUP10 ADD DUP2 SWAP1 MSTORE DUP10 SWAP3 DUP3 ADD SWAP1 DUP10 PUSH1 0x0 JUMPDEST DUP3 DUP2 LT PUSH2 0x2780 JUMPI DUP5 DUP5 SUB DUP6 RETURN JUMPDEST DUP6 MLOAD DUP1 MLOAD DUP6 MSTORE DUP1 DUP4 ADD MLOAD DUP6 DUP5 ADD MSTORE PUSH1 0x40 DUP1 DUP3 ADD MLOAD SWAP1 DUP7 ADD MSTORE PUSH1 0x60 DUP1 DUP3 ADD MLOAD SWAP1 DUP7 ADD MSTORE PUSH1 0x80 SWAP1 DUP2 ADD MLOAD SWAP1 DUP6 ADD MSTORE SWAP5 DUP2 ADD SWAP5 PUSH1 0xA0 SWAP1 SWAP4 ADD SWAP3 PUSH1 0x1 ADD PUSH2 0x2773 JUMP JUMPDEST PUSH1 0x5 DUP7 PUSH1 0x1 SWAP3 PUSH1 0x40 MLOAD PUSH2 0x27D0 DUP2 PUSH2 0x2823 JUMP JUMPDEST DUP6 SLOAD DUP2 MSTORE DUP5 DUP7 ADD SLOAD DUP4 DUP3 ADD MSTORE PUSH1 0x2 DUP7 ADD SLOAD PUSH1 0x40 DUP3 ADD MSTORE PUSH1 0x3 DUP7 ADD SLOAD PUSH1 0x60 DUP3 ADD MSTORE PUSH1 0x4 DUP7 ADD SLOAD PUSH1 0x80 DUP3 ADD MSTORE DUP2 MSTORE ADD SWAP3 ADD SWAP3 ADD SWAP2 SWAP1 PUSH2 0x2754 JUMP JUMPDEST CALLVALUE PUSH2 0x2AA JUMPI PUSH1 0x0 CALLDATASIZE PUSH1 0x3 NOT ADD SLT PUSH2 0x2AA JUMPI PUSH1 0x20 SWAP1 PUSH1 0x8 SLOAD DUP2 MSTORE RETURN JUMPDEST PUSH1 0xA0 DUP2 ADD SWAP1 DUP2 LT PUSH1 0x1 PUSH1 0x1 PUSH1 0x40 SHL SUB DUP3 GT OR PUSH2 0x1EB7 JUMPI PUSH1 0x40 MSTORE JUMP JUMPDEST PUSH2 0x1E0 DUP2 ADD SWAP1 DUP2 LT PUSH1 0x1 PUSH1 0x1 PUSH1 0x40 SHL SUB DUP3 GT OR PUSH2 0x1EB7 JUMPI PUSH1 0x40 MSTORE JUMP JUMPDEST PUSH1 0x40 DUP2 ADD SWAP1 DUP2 LT PUSH1 0x1 PUSH1 0x1 PUSH1 0x40 SHL SUB DUP3 GT OR PUSH2 0x1EB7 JUMPI PUSH1 0x40 MSTORE JUMP JUMPDEST SWAP1 PUSH1 0x1F DUP1 NOT SWAP2 ADD AND DUP2 ADD SWAP1 DUP2 LT PUSH1 0x1 PUSH1 0x1 PUSH1 0x40 SHL SUB DUP3 GT OR PUSH2 0x1EB7 JUMPI PUSH1 0x40 MSTORE JUMP JUMPDEST DUP2 PUSH1 0x1F DUP3 ADD SLT ISZERO PUSH2 0x2AA JUMPI DUP1 CALLDATALOAD SWAP1 PUSH1 0x1 PUSH1 0x1 PUSH1 0x40 SHL SUB DUP3 GT PUSH2 0x1EB7 JUMPI PUSH1 0x40 MLOAD SWAP3 PUSH2 0x28CA PUSH1 0x1F DUP5 ADD PUSH1 0x1F NOT AND PUSH1 0x20 ADD DUP6 PUSH2 0x2875 JUMP JUMPDEST DUP3 DUP5 MSTORE PUSH1 0x20 DUP4 DUP4 ADD ADD GT PUSH2 0x2AA JUMPI DUP2 PUSH1 0x0 SWAP3 PUSH1 0x20 DUP1 SWAP4 ADD DUP4 DUP7 ADD CALLDATACOPY DUP4 ADD ADD MSTORE SWAP1 JUMP JUMPDEST PUSH1 0x4 CALLDATALOAD SWAP1 PUSH1 0x1 PUSH1 0x1 PUSH1 0xA0 SHL SUB DUP3 AND DUP3 SUB PUSH2 0x2AA JUMPI JUMP JUMPDEST PUSH1 0x0 JUMPDEST DUP4 DUP2 LT PUSH2 0x2915 JUMPI POP POP PUSH1 0x0 SWAP2 ADD MSTORE JUMP JUMPDEST DUP2 DUP2 ADD MLOAD DUP4 DUP3 ADD MSTORE PUSH1 0x20 ADD PUSH2 0x2905 JUMP JUMPDEST SWAP1 PUSH1 0x20 SWAP2 PUSH2 0x293E DUP2 MLOAD DUP1 SWAP3 DUP2 DUP6 MSTORE DUP6 DUP1 DUP7 ADD SWAP2 ADD PUSH2 0x2902 JUMP JUMPDEST PUSH1 0x1F ADD PUSH1 0x1F NOT AND ADD ADD SWAP1 JUMP JUMPDEST SWAP1 PUSH1 0x5 DUP3 LT ISZERO PUSH2 0xF9A JUMPI MSTORE JUMP JUMPDEST PUSH1 0x20 SWAP1 PUSH1 0x20 PUSH1 0x40 DUP2 DUP4 ADD SWAP3 DUP3 DUP2 MSTORE DUP6 MLOAD DUP1 SWAP5 MSTORE ADD SWAP4 ADD SWAP2 PUSH1 0x0 JUMPDEST DUP3 DUP2 LT PUSH2 0x297F JUMPI POP POP POP POP SWAP1 JUMP JUMPDEST DUP4 MLOAD DUP6 MSTORE SWAP4 DUP2 ADD SWAP4 SWAP3 DUP2 ADD SWAP3 PUSH1 0x1 ADD PUSH2 0x2971 JUMP JUMPDEST DUP1 SLOAD DUP3 LT ISZERO PUSH2 0x29AB JUMPI PUSH1 0x0 MSTORE PUSH1 0x20 PUSH1 0x0 KECCAK256 ADD SWAP1 PUSH1 0x0 SWAP1 JUMP JUMPDEST PUSH4 0x4E487B71 PUSH1 0xE0 SHL PUSH1 0x0 MSTORE PUSH1 0x32 PUSH1 0x4 MSTORE PUSH1 0x24 PUSH1 0x0 REVERT JUMPDEST SWAP1 PUSH1 0x1 DUP3 DUP2 SHR SWAP3 AND DUP1 ISZERO PUSH2 0x29F1 JUMPI JUMPDEST PUSH1 0x20 DUP4 LT EQ PUSH2 0x29DB JUMPI JUMP JUMPDEST PUSH4 0x4E487B71 PUSH1 0xE0 SHL PUSH1 0x0 MSTORE PUSH1 0x22 PUSH1 0x4 MSTORE PUSH1 0x24 PUSH1 0x0 REVERT JUMPDEST SWAP2 PUSH1 0x7F AND SWAP2 PUSH2 0x29D0 JUMP JUMPDEST SWAP1 PUSH1 0x40 MLOAD SWAP2 DUP3 PUSH1 0x0 DUP3 SLOAD PUSH2 0x2A0E DUP2 PUSH2 0x29C1 JUMP JUMPDEST SWAP1 DUP2 DUP5 MSTORE PUSH1 0x20 SWAP5 PUSH1 0x1 SWAP2 PUSH1 0x1 DUP2 AND SWAP1 DUP2 PUSH1 0x0 EQ PUSH2 0x2A7E JUMPI POP PUSH1 0x1 EQ PUSH2 0x2A3F JUMPI JUMPDEST POP POP POP PUSH2 0x2A3D SWAP3 POP SUB DUP4 PUSH2 0x2875 JUMP JUMPDEST JUMP JUMPDEST PUSH1 0x0 SWAP1 DUP2 MSTORE DUP6 DUP2 KECCAK256 SWAP6 SWAP4 POP SWAP2 SWAP1 JUMPDEST DUP2 DUP4 LT PUSH2 0x2A66 JUMPI POP POP PUSH2 0x2A3D SWAP4 POP DUP3 ADD ADD CODESIZE DUP1 DUP1 PUSH2 0x2A2E JUMP JUMPDEST DUP6 SLOAD DUP9 DUP5 ADD DUP6 ADD MSTORE SWAP5 DUP6 ADD SWAP5 DUP8 SWAP5 POP SWAP2 DUP4 ADD SWAP2 PUSH2 0x2A4D JUMP JUMPDEST SWAP3 POP POP POP PUSH2 0x2A3D SWAP5 SWAP3 POP PUSH1 0xFF NOT AND DUP3 DUP5 ADD MSTORE ISZERO ISZERO PUSH1 0x5 SHL DUP3 ADD ADD CODESIZE DUP1 DUP1 PUSH2 0x2A2E JUMP JUMPDEST SWAP1 PUSH1 0x40 MLOAD PUSH2 0x2AAD DUP2 PUSH2 0x2823 JUMP JUMPDEST PUSH1 0x80 PUSH1 0xFF PUSH1 0x4 DUP4 SWAP6 DUP1 SLOAD DUP6 MSTORE PUSH1 0x1 DUP2 ADD SLOAD PUSH1 0x20 DUP7 ADD MSTORE PUSH1 0x2 DUP2 ADD SLOAD PUSH1 0x40 DUP7 ADD MSTORE PUSH1 0x3 DUP2 ADD SLOAD PUSH1 0x60 DUP7 ADD MSTORE ADD SLOAD AND ISZERO ISZERO SWAP2 ADD MSTORE JUMP JUMPDEST DUP1 SLOAD DUP3 LT ISZERO PUSH2 0x29AB JUMPI PUSH1 0x0 MSTORE PUSH1 0x5 PUSH1 0x20 PUSH1 0x0 KECCAK256 SWAP2 MUL ADD SWAP1 PUSH1 0x0 SWAP1 JUMP JUMPDEST CALLVALUE PUSH2 0x2AA JUMPI PUSH1 0x0 CALLDATASIZE PUSH1 0x3 NOT ADD SLT PUSH2 0x2AA JUMPI PUSH1 0x20 PUSH1 0x40 MLOAD PUSH2 0x3E8 DUP2 MSTORE RETURN JUMPDEST PUSH1 0x1 PUSH1 0x1 PUSH1 0x40 SHL SUB DUP2 GT PUSH2 0x1EB7 JUMPI PUSH1 0x5 SHL PUSH1 0x20 ADD SWAP1 JUMP JUMPDEST SWAP2 SWAP1 DUP3 ADD DUP1 SWAP3 GT PUSH2 0x249C JUMPI JUMP JUMPDEST DUP2 DUP2 MUL SWAP3 SWAP2 DUP2 ISZERO SWAP2 DUP5 DIV EQ OR ISZERO PUSH2 0x249C JUMPI JUMP JUMPDEST DUP2 ISZERO PUSH2 0x2B5B JUMPI DIV SWAP1 JUMP JUMPDEST PUSH4 0x4E487B71 PUSH1 0xE0 SHL PUSH1 0x0 MSTORE PUSH1 0x12 PUSH1 0x4 MSTORE PUSH1 0x24 PUSH1 0x0 REVERT JUMPDEST SWAP2 SWAP1 DUP3 SUB SWAP2 DUP3 GT PUSH2 0x249C JUMPI JUMP JUMPDEST PUSH1 0x0 NOT DUP2 EQ PUSH2 0x249C JUMPI PUSH1 0x1 ADD SWAP1 JUMP JUMPDEST SWAP1 PUSH1 0x40 MLOAD PUSH2 0x2B9A DUP2 PUSH2 0x283E JUMP JUMPDEST DUP3 SLOAD DUP2 MSTORE PUSH1 0x1 DUP4 ADD SLOAD PUSH1 0x1 PUSH1 0x1 PUSH1 0xA0 SHL SUB SWAP1 DUP2 AND PUSH1 0x20 DUP4 ADD MSTORE PUSH1 0x2 DUP5 ADD SLOAD AND PUSH1 0x40 DUP3 ADD MSTORE PUSH1 0x3 DUP4 ADD SLOAD PUSH1 0x60 DUP3 ADD MSTORE SWAP2 DUP3 SWAP1 PUSH2 0x2BD7 PUSH1 0x4 DUP3 ADD PUSH2 0x29FB JUMP JUMPDEST PUSH1 0x80 DUP4 ADD MSTORE PUSH2 0x2BE8 PUSH1 0x5 DUP3 ADD PUSH2 0x29FB JUMP JUMPDEST PUSH1 0xA0 DUP4 ADD MSTORE PUSH2 0x2BF9 PUSH1 0x6 DUP3 ADD PUSH2 0x29FB JUMP JUMPDEST PUSH1 0xC0 DUP4 ADD MSTORE PUSH2 0x2C0A PUSH1 0x7 DUP3 ADD PUSH2 0x2AA0 JUMP JUMPDEST PUSH1 0xE0 DUP4 ADD MSTORE PUSH1 0xC DUP2 ADD SLOAD PUSH2 0x100 DUP4 ADD MSTORE PUSH1 0xD DUP2 ADD SLOAD PUSH2 0x120 DUP4 ADD MSTORE PUSH1 0xE DUP2 ADD SLOAD PUSH2 0x140 DUP4 ADD MSTORE PUSH1 0xF DUP2 ADD SLOAD PUSH2 0x160 DUP4 ADD MSTORE PUSH1 0x10 DUP2 ADD SLOAD PUSH2 0x180 DUP4 ADD MSTORE PUSH1 0xFF PUSH1 0x11 DUP3 ADD SLOAD AND PUSH1 0x5 DUP2 LT ISZERO PUSH2 0xF9A JUMPI PUSH2 0x1C0 SWAP2 PUSH1 0x12 SWAP2 PUSH2 0x1A0 DUP6 ADD MSTORE ADD SLOAD SWAP2 ADD MSTORE JUMP JUMPDEST ISZERO PUSH2 0x2C72 JUMPI JUMP JUMPDEST PUSH1 0x64 PUSH1 0x40 MLOAD PUSH3 0x461BCD PUSH1 0xE5 SHL DUP2 MSTORE PUSH1 0x20 PUSH1 0x4 DUP3 ADD MSTORE PUSH1 0x20 PUSH1 0x24 DUP3 ADD MSTORE PUSH32 0x466C6F77467573696F6E3A204F7264657220646F6573206E6F74206578697374 PUSH1 0x44 DUP3 ADD MSTORE REVERT JUMPDEST DUP1 ISZERO PUSH2 0x249C JUMPI PUSH1 0x0 NOT ADD SWAP1 JUMP JUMPDEST SWAP1 PUSH2 0x2CCD DUP3 PUSH2 0x2B1A JUMP JUMPDEST PUSH2 0x2CDA PUSH1 0x40 MLOAD SWAP2 DUP3 PUSH2 0x2875 JUMP JUMPDEST DUP3 DUP2 MSTORE DUP1 SWAP3 PUSH2 0x2CEB PUSH1 0x1F NOT SWAP2 PUSH2 0x2B1A JUMP JUMPDEST ADD SWAP1 PUSH1 0x20 CALLDATASIZE SWAP2 ADD CALLDATACOPY JUMP JUMPDEST DUP1 MLOAD DUP3 LT ISZERO PUSH2 0x29AB JUMPI PUSH1 0x20 SWAP2 PUSH1 0x5 SHL ADD ADD SWAP1 JUMP JUMPDEST ISZERO PUSH2 0x2D10 JUMPI JUMP JUMPDEST PUSH1 0x40 MLOAD PUSH3 0x461BCD PUSH1 0xE5 SHL DUP2 MSTORE PUSH1 0x20 PUSH1 0x4 DUP3 ADD MSTORE PUSH1 0x1D PUSH1 0x24 DUP3 ADD MSTORE PUSH32 0x466C6F77467573696F6E3A20536C69707061676520746F6F2068696768000000 PUSH1 0x44 DUP3 ADD MSTORE PUSH1 0x64 SWAP1 REVERT JUMPDEST PUSH1 0x0 MSTORE PUSH1 0x2 PUSH1 0x20 MSTORE PUSH2 0x2D6A PUSH1 0x40 PUSH1 0x0 KECCAK256 PUSH2 0x2B8D JUMP JUMPDEST PUSH2 0x180 DUP2 ADD MLOAD DUP1 ISZERO PUSH2 0x2D89 JUMPI PUSH2 0x95A PUSH1 0xE0 PUSH2 0x2D86 SWAP4 ADD MLOAD PUSH2 0x2E4E JUMP JUMPDEST SWAP1 JUMP JUMPDEST POP POP TIMESTAMP SWAP1 JUMP JUMPDEST PUSH1 0x1 SLOAD PUSH1 0x8 SHR PUSH1 0x1 PUSH1 0x1 PUSH1 0xA0 SHL SUB AND CALLER SUB PUSH2 0x2DA6 JUMPI JUMP JUMPDEST PUSH1 0x40 MLOAD PUSH4 0x118CDAA7 PUSH1 0xE0 SHL DUP2 MSTORE CALLER PUSH1 0x4 DUP3 ADD MSTORE PUSH1 0x24 SWAP1 REVERT JUMPDEST PUSH1 0x2 PUSH1 0x0 SLOAD EQ PUSH2 0x2DCF JUMPI PUSH1 0x2 PUSH1 0x0 SSTORE JUMP JUMPDEST PUSH1 0x40 MLOAD PUSH4 0x3EE5AEB5 PUSH1 0xE0 SHL DUP2 MSTORE PUSH1 0x4 SWAP1 REVERT JUMPDEST PUSH1 0xFF PUSH1 0x1 SLOAD AND PUSH2 0x2DED JUMPI JUMP JUMPDEST PUSH1 0x40 MLOAD PUSH4 0xD93C0665 PUSH1 0xE0 SHL DUP2 MSTORE PUSH1 0x4 SWAP1 REVERT JUMPDEST PUSH1 0x40 MLOAD PUSH4 0xA9059CBB PUSH1 0xE0 SHL PUSH1 0x20 DUP3 ADD MSTORE PUSH1 0x1 PUSH1 0x1 PUSH1 0xA0 SHL SUB SWAP1 SWAP3 AND PUSH1 0x24 DUP4 ADD MSTORE PUSH1 0x44 DUP1 DUP4 ADD SWAP4 SWAP1 SWAP4 MSTORE SWAP2 DUP2 MSTORE PUSH1 0x80 DUP2 ADD SWAP2 PUSH1 0x1 PUSH1 0x1 PUSH1 0x40 SHL SUB DUP4 GT DUP3 DUP5 LT OR PUSH2 0x1EB7 JUMPI PUSH2 0x2A3D SWAP3 PUSH1 0x40 MSTORE PUSH2 0x308B JUMP JUMPDEST DUP1 MLOAD PUSH1 0x3C DUP2 MUL SWAP1 DUP1 DUP3 DIV PUSH1 0x3C EQ SWAP1 ISZERO OR ISZERO PUSH2 0x249C JUMPI PUSH1 0x20 PUSH2 0x2D86 SWAP3 ADD MLOAD SWAP1 PUSH2 0x2B51 JUMP JUMPDEST SWAP1 PUSH1 0x0 SWAP2 DUP1 DUP4 MSTORE PUSH1 0x4 SWAP3 PUSH1 0x20 SWAP2 PUSH1 0x4 DUP4 MSTORE PUSH1 0x40 SWAP3 DUP4 DUP4 KECCAK256 SWAP2 DUP3 SLOAD PUSH2 0x2E94 DUP2 PUSH2 0x2B1A JUMP JUMPDEST SWAP4 PUSH2 0x2EA1 DUP8 MLOAD SWAP6 DUP7 PUSH2 0x2875 JUMP JUMPDEST DUP2 DUP6 MSTORE DUP6 MSTORE DUP3 DUP6 KECCAK256 DUP6 SWAP1 DUP5 DUP1 DUP8 ADD JUMPDEST DUP5 DUP5 LT PUSH2 0x2FF1 JUMPI POP POP POP POP POP DUP3 MLOAD ISZERO PUSH2 0x2FE8 JUMPI SWAP1 PUSH1 0x2 SWAP2 DUP5 MSTORE MSTORE PUSH1 0xE0 PUSH2 0x2ED7 DUP5 DUP5 KECCAK256 PUSH2 0x2B8D JUMP JUMPDEST ADD MLOAD MLOAD PUSH1 0x3C DUP2 MUL SWAP1 DUP1 DUP3 DIV PUSH1 0x3C EQ SWAP1 ISZERO OR ISZERO PUSH2 0x2FD4 JUMPI PUSH2 0x2EF7 SWAP1 TIMESTAMP PUSH2 0x2B71 JUMP JUMPDEST SWAP3 DUP3 DUP1 SWAP5 DUP2 JUMPDEST DUP5 MLOAD DUP2 LT ISZERO PUSH2 0x2FB6 JUMPI DUP2 PUSH2 0x2F11 DUP3 DUP8 PUSH2 0x2CF5 JUMP JUMPDEST MLOAD MLOAD LT ISZERO PUSH2 0x2F22 JUMPI JUMPDEST PUSH1 0x1 ADD PUSH2 0x2EFD JUMP JUMPDEST SWAP6 SWAP5 DUP7 ISZERO PUSH2 0x2F9C JUMPI PUSH2 0x2F34 DUP8 DUP7 PUSH2 0x2CF5 JUMP JUMPDEST MLOAD MLOAD PUSH1 0x0 NOT DUP9 ADD DUP9 DUP2 GT PUSH2 0x2F89 JUMPI PUSH2 0x2F7B PUSH1 0x1 SWAP4 PUSH2 0x95A DUP12 DUP10 PUSH2 0x2F69 PUSH2 0x2F81 SWAP8 PUSH2 0x2F61 PUSH2 0x2F73 SWAP9 DUP16 PUSH2 0x2CF5 JUMP JUMPDEST MLOAD MLOAD SWAP1 PUSH2 0x2B71 JUMP JUMPDEST SWAP6 DUP7 SWAP3 JUMPDEST DUP14 PUSH2 0x2CF5 JUMP JUMPDEST MLOAD ADD MLOAD PUSH2 0x2B3E JUMP JUMPDEST SWAP8 PUSH2 0x2B31 JUMP JUMPDEST SWAP7 SWAP1 POP PUSH2 0x2F1A JUMP JUMPDEST PUSH4 0x4E487B71 PUSH1 0xE0 SHL DUP6 MSTORE PUSH1 0x11 DUP12 MSTORE PUSH1 0x24 DUP6 REVERT JUMPDEST PUSH2 0x2F81 PUSH2 0x2F73 PUSH2 0x2F7B PUSH1 0x1 SWAP4 PUSH2 0x95A DUP12 DUP10 DUP8 SWAP6 DUP7 SWAP3 PUSH2 0x2F6D JUMP JUMPDEST POP SWAP6 SWAP7 POP SWAP5 POP POP DUP3 ISZERO SWAP1 POP PUSH2 0x2FCF JUMPI PUSH2 0x2D86 SWAP3 POP PUSH2 0x2B51 JUMP JUMPDEST POP POP SWAP1 JUMP JUMPDEST PUSH4 0x4E487B71 PUSH1 0xE0 SHL DUP4 MSTORE PUSH1 0x11 PUSH1 0x4 MSTORE PUSH1 0x24 DUP4 REVERT JUMPDEST POP SWAP2 SWAP5 POP POP POP POP JUMP JUMPDEST PUSH1 0x1 SWAP2 PUSH1 0x5 SWAP2 DUP14 DUP13 MLOAD SWAP1 PUSH2 0x3004 DUP3 PUSH2 0x2823 JUMP JUMPDEST DUP7 SLOAD DUP3 MSTORE DUP6 DUP8 ADD SLOAD DUP5 DUP4 ADD MSTORE DUP14 PUSH1 0x2 DUP9 ADD SLOAD SWAP1 DUP4 ADD MSTORE PUSH1 0x3 DUP8 ADD SLOAD PUSH1 0x60 DUP4 ADD MSTORE DUP7 ADD SLOAD PUSH1 0x80 DUP3 ADD MSTORE DUP2 MSTORE ADD SWAP3 ADD SWAP3 ADD SWAP2 SWAP1 DUP6 SWAP1 PUSH2 0x2EB0 JUMP JUMPDEST SWAP1 DUP2 ISZERO PUSH2 0x3084 JUMPI DUP2 DUP2 DUP2 GT ISZERO PUSH2 0x3075 JUMPI SWAP1 PUSH2 0x3056 SWAP2 PUSH2 0x2B71 JUMP JUMPDEST SWAP1 JUMPDEST PUSH2 0x2710 SWAP2 DUP3 DUP2 MUL SWAP3 DUP2 DUP5 DIV EQ SWAP1 ISZERO OR ISZERO PUSH2 0x249C JUMPI PUSH2 0x2D86 SWAP2 PUSH2 0x2B51 JUMP JUMPDEST PUSH2 0x307E SWAP2 PUSH2 0x2B71 JUMP JUMPDEST SWAP1 PUSH2 0x3058 JUMP JUMPDEST POP POP PUSH1 0x0 SWAP1 JUMP JUMPDEST SWAP1 PUSH1 0x0 PUSH1 0x20 SWAP2 DUP3 DUP2 MLOAD SWAP2 ADD DUP3 DUP6 GAS CALL ISZERO PUSH2 0x1004 JUMPI PUSH1 0x0 MLOAD RETURNDATASIZE PUSH2 0x30DE JUMPI POP PUSH1 0x1 PUSH1 0x1 PUSH1 0xA0 SHL SUB DUP2 AND EXTCODESIZE ISZERO JUMPDEST PUSH2 0x30BC JUMPI POP JUMP JUMPDEST PUSH1 0x40 MLOAD PUSH4 0x5274AFE7 PUSH1 0xE0 SHL DUP2 MSTORE PUSH1 0x1 PUSH1 0x1 PUSH1 0xA0 SHL SUB SWAP1 SWAP2 AND PUSH1 0x4 DUP3 ADD MSTORE PUSH1 0x24 SWAP1 REVERT JUMPDEST PUSH1 0x1 EQ ISZERO PUSH2 0x30B5 JUMP INVALID LOG2 PUSH5 0x6970667358 0x22 SLT KECCAK256 0xC8 MUL LOG0 DUP4 0xC9 DUP3 0xC9 0x25 PUSH10 0x7E15AD1A5E56E5ED038C 0xC6 SWAP16 0x2D 0xAC 0xCC 0xAB 0xCB 0xF9 GASPRICE 0xC3 0x4B 0x1E EXTCODECOPY PUSH5 0x736F6C6343 STOP ADDMOD XOR STOP CALLER "},"gasEstimates":{"creation":{"codeDepositCost":"2514600","executionCost":"infinite","totalCost":"infinite"},"external":{"":"1147","BASIS_POINTS()":"925","MAX_EXECUTION_INTERVALS()":"881","MAX_SLIPPAGE()":"1047","MAX_WINDOW_MINUTES()":"221","MIN_EXECUTION_AMOUNT()":"1069","MIN_WINDOW_MINUTES()":"969","VERSION()":"1076","addAuthorizedExecutor(address)":"27360","addSupportedChain(string)":"infinite","authorizedExecutors(address)":"2751","cancelOrder(bytes32)":"infinite","claimHTLC(bytes32,bytes32)":"104322","createTWAPOrder(address,uint256,string,string,string,(uint256,uint256,uint256,uint256,bool),bytes32,uint256)":"infinite","emergencyWithdraw(address,uint256)":"infinite","executeTWAPInterval(bytes32,uint256,uint256,bytes)":"infinite","executionHistory(bytes32,uint256)":"15807","feeCollector()":"2964","getCurrentTWAPPrice(bytes32)":"infinite","getExecutionHistory(bytes32)":"infinite","getNextExecutionTime(bytes32)":"infinite","getOrder(bytes32)":"infinite","getOrdersByStatus(uint8)":"infinite","getUserOrders(address)":"infinite","maxOrdersPerUser()":"2478","orderNonce()":"2250","orders(bytes32)":"infinite","owner()":"2775","pause()":"30117","paused()":"2468","protocolFeeRate()":"2434","removeAuthorizedExecutor(address)":"26939","removeSupportedChain(string)":"infinite","renounceOwnership()":"28449","supportedChains(string)":"infinite","totalOrders()":"2302","totalVolume()":"2500","transferOwnership(address)":"29064","unpause()":"27660","updateFeeCollector(address)":"27353","updateMaxOrdersPerUser(uint256)":"25000","updateProtocolFeeRate(uint256)":"24717","userOrderCount(address)":"3245","userOrders(address,uint256)":"7222"},"internal":{"_calculateSlippage(uint256,uint256)":"252","_calculateTWAP(bytes32)":"infinite","_calculateWeightedAveragePrice(struct IFlowFusionBridge.TWAPOrder memory,uint256,uint256)":"infinite","_getIntervalDuration(struct IFlowFusionBridge.TWAPConfig memory)":"infinite","_validateTWAPConfig(struct IFlowFusionBridge.TWAPConfig memory)":"infinite","_verifyPrice(uint256,bytes calldata)":"infinite"}},"methodIdentifiers":{"BASIS_POINTS()":"e1f1c4a7","MAX_EXECUTION_INTERVALS()":"d62e5d79","MAX_SLIPPAGE()":"f9759518","MAX_WINDOW_MINUTES()":"1def6ffe","MIN_EXECUTION_AMOUNT()":"fca98ac6","MIN_WINDOW_MINUTES()":"e6a73b63","VERSION()":"ffa1ad74","addAuthorizedExecutor(address)":"b2a7f494","addSupportedChain(string)":"e5eb8a89","authorizedExecutors(address)":"679d86a7","cancelOrder(bytes32)":"7489ec23","claimHTLC(bytes32,bytes32)":"9755dca0","createTWAPOrder(address,uint256,string,string,string,(uint256,uint256,uint256,uint256,bool),bytes32,uint256)":"518479b3","emergencyWithdraw(address,uint256)":"95ccea67","executeTWAPInterval(bytes32,uint256,uint256,bytes)":"a3f1c420","executionHistory(bytes32,uint256)":"a6329c7f","feeCollector()":"c415b95c","getCurrentTWAPPrice(bytes32)":"a89a6f69","getExecutionHistory(bytes32)":"1833f0cf","getNextExecutionTime(bytes32)":"dc33597d","getOrder(bytes32)":"5778472a","getOrdersByStatus(uint8)":"8ce2ec79","getUserOrders(address)":"63c69f08","maxOrdersPerUser()":"5d830dd1","orderNonce()":"16f8de89","orders(bytes32)":"9c3f1e90","owner()":"8da5cb5b","pause()":"8456cb59","paused()":"5c975abb","protocolFeeRate()":"58f85880","removeAuthorizedExecutor(address)":"60c7bae2","removeSupportedChain(string)":"46560023","renounceOwnership()":"715018a6","supportedChains(string)":"6c30aaa2","totalOrders()":"1d834409","totalVolume()":"5f81a57c","transferOwnership(address)":"f2fde38b","unpause()":"3f4ba83a","updateFeeCollector(address)":"d2c35ce8","updateMaxOrdersPerUser(uint256)":"9cac0fb2","updateProtocolFeeRate(uint256)":"6340d55c","userOrderCount(address)":"ec4eb4f9","userOrders(address,uint256)":"856652e9"}},"storageLayout":{"storage":[{"astId":1606,"contract":"contracts/FlowFusionBridge.sol:FlowFusionBridge","label":"_status","offset":0,"slot":"0","type":"t_uint256"},{"astId":1496,"contract":"contracts/FlowFusionBridge.sol:FlowFusionBridge","label":"_paused","offset":0,"slot":"1","type":"t_bool"},{"astId":8,"contract":"contracts/FlowFusionBridge.sol:FlowFusionBridge","label":"_owner","offset":1,"slot":"1","type":"t_address"},{"astId":1727,"contract":"contracts/FlowFusionBridge.sol:FlowFusionBridge","label":"orders","offset":0,"slot":"2","type":"t_mapping(t_bytes32,t_struct(TWAPOrder)3333_storage)"},{"astId":1732,"contract":"contracts/FlowFusionBridge.sol:FlowFusionBridge","label":"userOrders","offset":0,"slot":"3","type":"t_mapping(t_address,t_array(t_bytes32)dyn_storage)"},{"astId":1738,"contract":"contracts/FlowFusionBridge.sol:FlowFusionBridge","label":"executionHistory","offset":0,"slot":"4","type":"t_mapping(t_bytes32,t_array(t_struct(ExecutionRecord)3344_storage)dyn_storage)"},{"astId":1742,"contract":"contracts/FlowFusionBridge.sol:FlowFusionBridge","label":"supportedChains","offset":0,"slot":"5","type":"t_mapping(t_string_memory_ptr,t_bool)"},{"astId":1746,"contract":"contracts/FlowFusionBridge.sol:FlowFusionBridge","label":"authorizedExecutors","offset":0,"slot":"6","type":"t_mapping(t_address,t_bool)"},{"astId":1750,"contract":"contracts/FlowFusionBridge.sol:FlowFusionBridge","label":"userOrderCount","offset":0,"slot":"7","type":"t_mapping(t_address,t_uint256)"},{"astId":1752,"contract":"contracts/FlowFusionBridge.sol:FlowFusionBridge","label":"orderNonce","offset":0,"slot":"8","type":"t_uint256"},{"astId":1754,"contract":"contracts/FlowFusionBridge.sol:FlowFusionBridge","label":"totalOrders","offset":0,"slot":"9","type":"t_uint256"},{"astId":1756,"contract":"contracts/FlowFusionBridge.sol:FlowFusionBridge","label":"totalVolume","offset":0,"slot":"10","type":"t_uint256"},{"astId":1758,"contract":"contracts/FlowFusionBridge.sol:FlowFusionBridge","label":"feeCollector","offset":0,"slot":"11","type":"t_address"},{"astId":1760,"contract":"contracts/FlowFusionBridge.sol:FlowFusionBridge","label":"protocolFeeRate","offset":0,"slot":"12","type":"t_uint256"},{"astId":1763,"contract":"contracts/FlowFusionBridge.sol:FlowFusionBridge","label":"maxOrdersPerUser","offset":0,"slot":"13","type":"t_uint256"}],"types":{"t_address":{"encoding":"inplace","label":"address","numberOfBytes":"20"},"t_array(t_bytes32)dyn_storage":{"base":"t_bytes32","encoding":"dynamic_array","label":"bytes32[]","numberOfBytes":"32"},"t_array(t_struct(ExecutionRecord)3344_storage)dyn_storage":{"base":"t_struct(ExecutionRecord)3344_storage","encoding":"dynamic_array","label":"struct IFlowFusionBridge.ExecutionRecord[]","numberOfBytes":"32"},"t_bool":{"encoding":"inplace","label":"bool","numberOfBytes":"1"},"t_bytes32":{"encoding":"inplace","label":"bytes32","numberOfBytes":"32"},"t_enum(OrderStatus)3350":{"encoding":"inplace","label":"enum IFlowFusionBridge.OrderStatus","numberOfBytes":"1"},"t_mapping(t_address,t_array(t_bytes32)dyn_storage)":{"encoding":"mapping","key":"t_address","label":"mapping(address => bytes32[])","numberOfBytes":"32","value":"t_array(t_bytes32)dyn_storage"},"t_mapping(t_address,t_bool)":{"encoding":"mapping","key":"t_address","label":"mapping(address => bool)","numberOfBytes":"32","value":"t_bool"},"t_mapping(t_address,t_uint256)":{"encoding":"mapping","key":"t_address","label":"mapping(address => uint256)","numberOfBytes":"32","value":"t_uint256"},"t_mapping(t_bytes32,t_array(t_struct(ExecutionRecord)3344_storage)dyn_storage)":{"encoding":"mapping","key":"t_bytes32","label":"mapping(bytes32 => struct IFlowFusionBridge.ExecutionRecord[])","numberOfBytes":"32","value":"t_array(t_struct(ExecutionRecord)3344_storage)dyn_storage"},"t_mapping(t_bytes32,t_struct(TWAPOrder)3333_storage)":{"encoding":"mapping","key":"t_bytes32","label":"mapping(bytes32 => struct IFlowFusionBridge.TWAPOrder)","numberOfBytes":"32","value":"t_struct(TWAPOrder)3333_storage"},"t_mapping(t_string_memory_ptr,t_bool)":{"encoding":"mapping","key":"t_string_memory_ptr","label":"mapping(string => bool)","numberOfBytes":"32","value":"t_bool"},"t_string_memory_ptr":{"encoding":"bytes","label":"string","numberOfBytes":"32"},"t_string_storage":{"encoding":"bytes","label":"string","numberOfBytes":"32"},"t_struct(ExecutionRecord)3344_storage":{"encoding":"inplace","label":"struct IFlowFusionBridge.ExecutionRecord","members":[{"astId":3335,"contract":"contracts/FlowFusionBridge.sol:FlowFusionBridge","label":"timestamp","offset":0,"slot":"0","type":"t_uint256"},{"astId":3337,"contract":"contracts/FlowFusionBridge.sol:FlowFusionBridge","label":"amount","offset":0,"slot":"1","type":"t_uint256"},{"astId":3339,"contract":"contracts/FlowFusionBridge.sol:FlowFusionBridge","label":"price","offset":0,"slot":"2","type":"t_uint256"},{"astId":3341,"contract":"contracts/FlowFusionBridge.sol:FlowFusionBridge","label":"gasUsed","offset":0,"slot":"3","type":"t_uint256"},{"astId":3343,"contract":"contracts/FlowFusionBridge.sol:FlowFusionBridge","label":"slippage","offset":0,"slot":"4","type":"t_uint256"}],"numberOfBytes":"160"},"t_struct(TWAPConfig)3300_storage":{"encoding":"inplace","label":"struct IFlowFusionBridge.TWAPConfig","members":[{"astId":3291,"contract":"contracts/FlowFusionBridge.sol:FlowFusionBridge","label":"windowMinutes","offset":0,"slot":"0","type":"t_uint256"},{"astId":3293,"contract":"contracts/FlowFusionBridge.sol:FlowFusionBridge","label":"executionIntervals","offset":0,"slot":"1","type":"t_uint256"},{"astId":3295,"contract":"contracts/FlowFusionBridge.sol:FlowFusionBridge","label":"maxSlippage","offset":0,"slot":"2","type":"t_uint256"},{"astId":3297,"contract":"contracts/FlowFusionBridge.sol:FlowFusionBridge","label":"minFillSize","offset":0,"slot":"3","type":"t_uint256"},{"astId":3299,"contract":"contracts/FlowFusionBridge.sol:FlowFusionBridge","label":"enableMEVProtection","offset":0,"slot":"4","type":"t_bool"}],"numberOfBytes":"160"},"t_struct(TWAPOrder)3333_storage":{"encoding":"inplace","label":"struct IFlowFusionBridge.TWAPOrder","members":[{"astId":3302,"contract":"contracts/FlowFusionBridge.sol:FlowFusionBridge","label":"id","offset":0,"slot":"0","type":"t_bytes32"},{"astId":3304,"contract":"contracts/FlowFusionBridge.sol:FlowFusionBridge","label":"user","offset":0,"slot":"1","type":"t_address"},{"astId":3306,"contract":"contracts/FlowFusionBridge.sol:FlowFusionBridge","label":"sourceToken","offset":0,"slot":"2","type":"t_address"},{"astId":3308,"contract":"contracts/FlowFusionBridge.sol:FlowFusionBridge","label":"sourceAmount","offset":0,"slot":"3","type":"t_uint256"},{"astId":3310,"contract":"contracts/FlowFusionBridge.sol:FlowFusionBridge","label":"targetChain","offset":0,"slot":"4","type":"t_string_storage"},{"astId":3312,"contract":"contracts/FlowFusionBridge.sol:FlowFusionBridge","label":"targetToken","offset":0,"slot":"5","type":"t_string_storage"},{"astId":3314,"contract":"contracts/FlowFusionBridge.sol:FlowFusionBridge","label":"targetRecipient","offset":0,"slot":"6","type":"t_string_storage"},{"astId":3317,"contract":"contracts/FlowFusionBridge.sol:FlowFusionBridge","label":"twapConfig","offset":0,"slot":"7","type":"t_struct(TWAPConfig)3300_storage"},{"astId":3319,"contract":"contracts/FlowFusionBridge.sol:FlowFusionBridge","label":"htlcHash","offset":0,"slot":"12","type":"t_bytes32"},{"astId":3321,"contract":"contracts/FlowFusionBridge.sol:FlowFusionBridge","label":"timeoutHeight","offset":0,"slot":"13","type":"t_uint256"},{"astId":3323,"contract":"contracts/FlowFusionBridge.sol:FlowFusionBridge","label":"createdAt","offset":0,"slot":"14","type":"t_uint256"},{"astId":3325,"contract":"contracts/FlowFusionBridge.sol:FlowFusionBridge","label":"executedAmount","offset":0,"slot":"15","type":"t_uint256"},{"astId":3327,"contract":"contracts/FlowFusionBridge.sol:FlowFusionBridge","label":"lastExecution","offset":0,"slot":"16","type":"t_uint256"},{"astId":3330,"contract":"contracts/FlowFusionBridge.sol:FlowFusionBridge","label":"status","offset":0,"slot":"17","type":"t_enum(OrderStatus)3350"},{"astId":3332,"contract":"contracts/FlowFusionBridge.sol:FlowFusionBridge","label":"averagePrice","offset":0,"slot":"18","type":"t_uint256"}],"numberOfBytes":"608"},"t_uint256":{"encoding":"inplace","label":"uint256","numberOfBytes":"32"}}},"userdoc":{"kind":"user","methods":{"cancelOrder(bytes32)":{"notice":"Cancel an order and refund remaining tokens"},"claimHTLC(bytes32,bytes32)":{"notice":"Claim HTLC with secret to complete cross-chain swap"},"createTWAPOrder(address,uint256,string,string,string,(uint256,uint256,uint256,uint256,bool),bytes32,uint256)":{"notice":"Create a new TWAP order for cross-chain execution"},"executeTWAPInterval(bytes32,uint256,uint256,bytes)":{"notice":"Execute a TWAP interval for an order"}},"notice":"Multi-chain TWAP bridge for professional trading with MEV protection","version":1}}}}